{
	"Visibility.sol": {
		"VisibilityChild": {
			"abi": [
				{
					"inputs": [],
					"name": "examples",
					"outputs": [],
					"stateMutability": "view",
					"type": "function"
				},
				{
					"inputs": [],
					"name": "examples2",
					"outputs": [],
					"stateMutability": "view",
					"type": "function"
				},
				{
					"inputs": [],
					"name": "externalFunc",
					"outputs": [
						{
							"internalType": "uint256",
							"name": "",
							"type": "uint256"
						}
					],
					"stateMutability": "pure",
					"type": "function"
				},
				{
					"inputs": [],
					"name": "publicFunc",
					"outputs": [
						{
							"internalType": "uint256",
							"name": "",
							"type": "uint256"
						}
					],
					"stateMutability": "pure",
					"type": "function"
				},
				{
					"inputs": [],
					"name": "z",
					"outputs": [
						{
							"internalType": "uint256",
							"name": "",
							"type": "uint256"
						}
					],
					"stateMutability": "view",
					"type": "function"
				}
			],
			"devdoc": {
				"kind": "dev",
				"methods": {},
				"version": 1
			},
			"evm": {
				"assembly": "    /* \"Visibility.sol\":715:868  contract VisibilityChild is VisiblityBase {... */\n  mstore(0x40, 0x80)\n    /* \"Visibility.sol\":106:107  0 */\n  0x00\n    /* \"Visibility.sol\":86:107  uint256 private x = 0 */\n  dup1\n  sstore\n    /* \"Visibility.sol\":134:135  1 */\n  0x01\n    /* \"Visibility.sol\":113:135  uint256 internal y = 1 */\n  dup1\n  sstore\n    /* \"Visibility.sol\":160:161  2 */\n  0x02\n    /* \"Visibility.sol\":141:161  uint256 public z = 2 */\n  dup1\n  sstore\n    /* \"Visibility.sol\":715:868  contract VisibilityChild is VisiblityBase {... */\n  callvalue\n  dup1\n  iszero\n  tag_1\n  jumpi\n  0x00\n  dup1\n  revert\ntag_1:\n  pop\n  dataSize(sub_0)\n  dup1\n  dataOffset(sub_0)\n  0x00\n  codecopy\n  0x00\n  return\nstop\n\nsub_0: assembly {\n        /* \"Visibility.sol\":715:868  contract VisibilityChild is VisiblityBase {... */\n      mstore(0x40, 0x80)\n      callvalue\n      dup1\n      iszero\n      tag_1\n      jumpi\n      0x00\n      dup1\n      revert\n    tag_1:\n      pop\n      jumpi(tag_2, lt(calldatasize, 0x04))\n      shr(0xe0, calldataload(0x00))\n      dup1\n      0x335d00c2\n      eq\n      tag_3\n      jumpi\n      dup1\n      0x42b148aa\n      eq\n      tag_4\n      jumpi\n      dup1\n      0x4b73383f\n      eq\n      tag_5\n      jumpi\n      dup1\n      0xc3be8e2c\n      eq\n      tag_6\n      jumpi\n      dup1\n      0xc5d7802e\n      eq\n      tag_7\n      jumpi\n    tag_2:\n      0x00\n      dup1\n      revert\n        /* \"Visibility.sol\":516:711  function examples() external view {... */\n    tag_3:\n      tag_8\n      tag_9\n      jump\t// in\n    tag_8:\n      stop\n        /* \"Visibility.sol\":427:510  function externalFunc() external pure returns (uint256) {... */\n    tag_4:\n      tag_10\n      tag_11\n      jump\t// in\n    tag_10:\n      mload(0x40)\n      tag_12\n      swap2\n      swap1\n      tag_13\n      jump\t// in\n    tag_12:\n      mload(0x40)\n      dup1\n      swap2\n      sub\n      swap1\n      return\n        /* \"Visibility.sol\":342:421  function publicFunc() public pure returns (uint256) {... */\n    tag_5:\n      tag_14\n      tag_15\n      jump\t// in\n    tag_14:\n      mload(0x40)\n      tag_16\n      swap2\n      swap1\n      tag_13\n      jump\t// in\n    tag_16:\n      mload(0x40)\n      dup1\n      swap2\n      sub\n      swap1\n      return\n        /* \"Visibility.sol\":763:866  function examples2() external view {... */\n    tag_6:\n      tag_17\n      tag_18\n      jump\t// in\n    tag_17:\n      stop\n        /* \"Visibility.sol\":141:161  uint256 public z = 2 */\n    tag_7:\n      tag_19\n      tag_20\n      jump\t// in\n    tag_19:\n      mload(0x40)\n      tag_21\n      swap2\n      swap1\n      tag_13\n      jump\t// in\n    tag_21:\n      mload(0x40)\n      dup1\n      swap2\n      sub\n      swap1\n      return\n        /* \"Visibility.sol\":516:711  function examples() external view {... */\n    tag_9:\n        /* \"Visibility.sol\":568:569  z */\n      sload(0x02)\n        /* \"Visibility.sol\":564:565  y */\n      sload(0x01)\n        /* \"Visibility.sol\":560:561  x */\n      sload(0x00)\n        /* \"Visibility.sol\":560:565  x + y */\n      tag_23\n      swap2\n      swap1\n      tag_24\n      jump\t// in\n    tag_23:\n        /* \"Visibility.sol\":560:569  x + y + z */\n      tag_25\n      swap2\n      swap1\n      tag_24\n      jump\t// in\n    tag_25:\n      pop\n        /* \"Visibility.sol\":579:592  privateFunc() */\n      tag_26\n        /* \"Visibility.sol\":579:590  privateFunc */\n      tag_27\n        /* \"Visibility.sol\":579:592  privateFunc() */\n      jump\t// in\n    tag_26:\n      pop\n        /* \"Visibility.sol\":602:616  internalFunc() */\n      tag_28\n        /* \"Visibility.sol\":602:614  internalFunc */\n      tag_29\n        /* \"Visibility.sol\":602:616  internalFunc() */\n      jump\t// in\n    tag_28:\n      pop\n        /* \"Visibility.sol\":626:638  publicFunc() */\n      tag_30\n        /* \"Visibility.sol\":626:636  publicFunc */\n      tag_15\n        /* \"Visibility.sol\":626:638  publicFunc() */\n      jump\t// in\n    tag_30:\n      pop\n        /* \"Visibility.sol\":649:653  this */\n      address\n        /* \"Visibility.sol\":649:666  this.externalFunc */\n      0xffffffffffffffffffffffffffffffffffffffff\n      and\n      0x42b148aa\n        /* \"Visibility.sol\":649:668  this.externalFunc() */\n      mload(0x40)\n      dup2\n      0xffffffff\n      and\n      0xe0\n      shl\n      dup2\n      mstore\n      0x04\n      add\n      0x20\n      mload(0x40)\n      dup1\n      dup4\n      sub\n      dup2\n      dup7\n      gas\n      staticcall\n      iszero\n      dup1\n      iszero\n      tag_32\n      jumpi\n      returndatasize\n      0x00\n      dup1\n      returndatacopy\n      revert(0x00, returndatasize)\n    tag_32:\n      pop\n      pop\n      pop\n      pop\n      mload(0x40)\n      returndatasize\n      not(0x1f)\n      0x1f\n      dup3\n      add\n      and\n      dup3\n      add\n      dup1\n      0x40\n      mstore\n      pop\n      dup2\n      add\n      swap1\n      tag_33\n      swap2\n      swap1\n      tag_34\n      jump\t// in\n    tag_33:\n      pop\n        /* \"Visibility.sol\":516:711  function examples() external view {... */\n      jump\t// out\n        /* \"Visibility.sol\":427:510  function externalFunc() external pure returns (uint256) {... */\n    tag_11:\n        /* \"Visibility.sol\":474:481  uint256 */\n      0x00\n        /* \"Visibility.sol\":500:503  300 */\n      0x012c\n        /* \"Visibility.sol\":493:503  return 300 */\n      swap1\n      pop\n        /* \"Visibility.sol\":427:510  function externalFunc() external pure returns (uint256) {... */\n      swap1\n      jump\t// out\n        /* \"Visibility.sol\":342:421  function publicFunc() public pure returns (uint256) {... */\n    tag_15:\n        /* \"Visibility.sol\":385:392  uint256 */\n      0x00\n        /* \"Visibility.sol\":411:414  200 */\n      0xc8\n        /* \"Visibility.sol\":404:414  return 200 */\n      swap1\n      pop\n        /* \"Visibility.sol\":342:421  function publicFunc() public pure returns (uint256) {... */\n      swap1\n      jump\t// out\n        /* \"Visibility.sol\":763:866  function examples2() external view {... */\n    tag_18:\n        /* \"Visibility.sol\":812:813  z */\n      sload(0x02)\n        /* \"Visibility.sol\":808:809  y */\n      sload(0x01)\n        /* \"Visibility.sol\":808:813  y + z */\n      tag_38\n      swap2\n      swap1\n      tag_24\n      jump\t// in\n    tag_38:\n      pop\n        /* \"Visibility.sol\":823:837  internalFunc() */\n      tag_39\n        /* \"Visibility.sol\":823:835  internalFunc */\n      tag_29\n        /* \"Visibility.sol\":823:837  internalFunc() */\n      jump\t// in\n    tag_39:\n      pop\n        /* \"Visibility.sol\":847:859  publicFunc() */\n      tag_40\n        /* \"Visibility.sol\":847:857  publicFunc */\n      tag_15\n        /* \"Visibility.sol\":847:859  publicFunc() */\n      jump\t// in\n    tag_40:\n      pop\n        /* \"Visibility.sol\":763:866  function examples2() external view {... */\n      jump\t// out\n        /* \"Visibility.sol\":141:161  uint256 public z = 2 */\n    tag_20:\n      sload(0x02)\n      dup2\n      jump\t// out\n        /* \"Visibility.sol\":168:247  function privateFunc() private pure returns (uint256) {... */\n    tag_27:\n        /* \"Visibility.sol\":213:220  uint256 */\n      0x00\n        /* \"Visibility.sol\":168:247  function privateFunc() private pure returns (uint256) {... */\n      swap1\n      jump\t// out\n        /* \"Visibility.sol\":253:336  function internalFunc() internal pure returns (uint256) {... */\n    tag_29:\n        /* \"Visibility.sol\":300:307  uint256 */\n      0x00\n        /* \"Visibility.sol\":326:329  100 */\n      0x64\n        /* \"Visibility.sol\":319:329  return 100 */\n      swap1\n      pop\n        /* \"Visibility.sol\":253:336  function internalFunc() internal pure returns (uint256) {... */\n      swap1\n      jump\t// out\n        /* \"#utility.yul\":7:84   */\n    tag_43:\n        /* \"#utility.yul\":44:51   */\n      0x00\n        /* \"#utility.yul\":73:78   */\n      dup2\n        /* \"#utility.yul\":62:78   */\n      swap1\n      pop\n        /* \"#utility.yul\":7:84   */\n      swap2\n      swap1\n      pop\n      jump\t// out\n        /* \"#utility.yul\":90:208   */\n    tag_44:\n        /* \"#utility.yul\":177:201   */\n      tag_54\n        /* \"#utility.yul\":195:200   */\n      dup2\n        /* \"#utility.yul\":177:201   */\n      tag_43\n      jump\t// in\n    tag_54:\n        /* \"#utility.yul\":172:175   */\n      dup3\n        /* \"#utility.yul\":165:202   */\n      mstore\n        /* \"#utility.yul\":90:208   */\n      pop\n      pop\n      jump\t// out\n        /* \"#utility.yul\":214:436   */\n    tag_13:\n        /* \"#utility.yul\":307:311   */\n      0x00\n        /* \"#utility.yul\":345:347   */\n      0x20\n        /* \"#utility.yul\":334:343   */\n      dup3\n        /* \"#utility.yul\":330:348   */\n      add\n        /* \"#utility.yul\":322:348   */\n      swap1\n      pop\n        /* \"#utility.yul\":358:429   */\n      tag_56\n        /* \"#utility.yul\":426:427   */\n      0x00\n        /* \"#utility.yul\":415:424   */\n      dup4\n        /* \"#utility.yul\":411:428   */\n      add\n        /* \"#utility.yul\":402:408   */\n      dup5\n        /* \"#utility.yul\":358:429   */\n      tag_44\n      jump\t// in\n    tag_56:\n        /* \"#utility.yul\":214:436   */\n      swap3\n      swap2\n      pop\n      pop\n      jump\t// out\n        /* \"#utility.yul\":442:622   */\n    tag_45:\n        /* \"#utility.yul\":490:567   */\n      0x4e487b7100000000000000000000000000000000000000000000000000000000\n        /* \"#utility.yul\":487:488   */\n      0x00\n        /* \"#utility.yul\":480:568   */\n      mstore\n        /* \"#utility.yul\":587:591   */\n      0x11\n        /* \"#utility.yul\":584:585   */\n      0x04\n        /* \"#utility.yul\":577:592   */\n      mstore\n        /* \"#utility.yul\":611:615   */\n      0x24\n        /* \"#utility.yul\":608:609   */\n      0x00\n        /* \"#utility.yul\":601:616   */\n      revert\n        /* \"#utility.yul\":628:819   */\n    tag_24:\n        /* \"#utility.yul\":668:671   */\n      0x00\n        /* \"#utility.yul\":687:707   */\n      tag_59\n        /* \"#utility.yul\":705:706   */\n      dup3\n        /* \"#utility.yul\":687:707   */\n      tag_43\n      jump\t// in\n    tag_59:\n        /* \"#utility.yul\":682:707   */\n      swap2\n      pop\n        /* \"#utility.yul\":721:741   */\n      tag_60\n        /* \"#utility.yul\":739:740   */\n      dup4\n        /* \"#utility.yul\":721:741   */\n      tag_43\n      jump\t// in\n    tag_60:\n        /* \"#utility.yul\":716:741   */\n      swap3\n      pop\n        /* \"#utility.yul\":764:765   */\n      dup3\n        /* \"#utility.yul\":761:762   */\n      dup3\n        /* \"#utility.yul\":757:766   */\n      add\n        /* \"#utility.yul\":750:766   */\n      swap1\n      pop\n        /* \"#utility.yul\":785:788   */\n      dup1\n        /* \"#utility.yul\":782:783   */\n      dup3\n        /* \"#utility.yul\":779:789   */\n      gt\n        /* \"#utility.yul\":776:812   */\n      iszero\n      tag_61\n      jumpi\n        /* \"#utility.yul\":792:810   */\n      tag_62\n      tag_45\n      jump\t// in\n    tag_62:\n        /* \"#utility.yul\":776:812   */\n    tag_61:\n        /* \"#utility.yul\":628:819   */\n      swap3\n      swap2\n      pop\n      pop\n      jump\t// out\n        /* \"#utility.yul\":906:1023   */\n    tag_47:\n        /* \"#utility.yul\":1015:1016   */\n      0x00\n        /* \"#utility.yul\":1012:1013   */\n      dup1\n        /* \"#utility.yul\":1005:1017   */\n      revert\n        /* \"#utility.yul\":1152:1274   */\n    tag_49:\n        /* \"#utility.yul\":1225:1249   */\n      tag_67\n        /* \"#utility.yul\":1243:1248   */\n      dup2\n        /* \"#utility.yul\":1225:1249   */\n      tag_43\n      jump\t// in\n    tag_67:\n        /* \"#utility.yul\":1218:1223   */\n      dup2\n        /* \"#utility.yul\":1215:1250   */\n      eq\n        /* \"#utility.yul\":1205:1268   */\n      tag_68\n      jumpi\n        /* \"#utility.yul\":1264:1265   */\n      0x00\n        /* \"#utility.yul\":1261:1262   */\n      dup1\n        /* \"#utility.yul\":1254:1266   */\n      revert\n        /* \"#utility.yul\":1205:1268   */\n    tag_68:\n        /* \"#utility.yul\":1152:1274   */\n      pop\n      jump\t// out\n        /* \"#utility.yul\":1280:1423   */\n    tag_50:\n        /* \"#utility.yul\":1337:1342   */\n      0x00\n        /* \"#utility.yul\":1368:1374   */\n      dup2\n        /* \"#utility.yul\":1362:1375   */\n      mload\n        /* \"#utility.yul\":1353:1375   */\n      swap1\n      pop\n        /* \"#utility.yul\":1384:1417   */\n      tag_70\n        /* \"#utility.yul\":1411:1416   */\n      dup2\n        /* \"#utility.yul\":1384:1417   */\n      tag_49\n      jump\t// in\n    tag_70:\n        /* \"#utility.yul\":1280:1423   */\n      swap3\n      swap2\n      pop\n      pop\n      jump\t// out\n        /* \"#utility.yul\":1429:1780   */\n    tag_34:\n        /* \"#utility.yul\":1499:1505   */\n      0x00\n        /* \"#utility.yul\":1548:1550   */\n      0x20\n        /* \"#utility.yul\":1536:1545   */\n      dup3\n        /* \"#utility.yul\":1527:1534   */\n      dup5\n        /* \"#utility.yul\":1523:1546   */\n      sub\n        /* \"#utility.yul\":1519:1551   */\n      slt\n        /* \"#utility.yul\":1516:1635   */\n      iszero\n      tag_72\n      jumpi\n        /* \"#utility.yul\":1554:1633   */\n      tag_73\n      tag_47\n      jump\t// in\n    tag_73:\n        /* \"#utility.yul\":1516:1635   */\n    tag_72:\n        /* \"#utility.yul\":1674:1675   */\n      0x00\n        /* \"#utility.yul\":1699:1763   */\n      tag_74\n        /* \"#utility.yul\":1755:1762   */\n      dup5\n        /* \"#utility.yul\":1746:1752   */\n      dup3\n        /* \"#utility.yul\":1735:1744   */\n      dup6\n        /* \"#utility.yul\":1731:1753   */\n      add\n        /* \"#utility.yul\":1699:1763   */\n      tag_50\n      jump\t// in\n    tag_74:\n        /* \"#utility.yul\":1689:1763   */\n      swap2\n      pop\n        /* \"#utility.yul\":1645:1773   */\n      pop\n        /* \"#utility.yul\":1429:1780   */\n      swap3\n      swap2\n      pop\n      pop\n      jump\t// out\n\n    auxdata: 0xa2646970667358221220b9d4f647c7628011b0bd506218d9f2124cca62935dcac8cd80761ef4c744f72864736f6c634300081a0033\n}\n",
				"bytecode": {
					"linkReferences": {},
					"object": "60806040525f805560018055600280553480156019575f80fd5b506102d7806100275f395ff3fe608060405234801561000f575f80fd5b5060043610610055575f3560e01c8063335d00c21461005957806342b148aa146100635780634b73383f14610081578063c3be8e2c1461009f578063c5d7802e146100a9575b5f80fd5b6100616100c7565b005b61006b61016f565b60405161007891906101cf565b60405180910390f35b610089610178565b60405161009691906101cf565b60405180910390f35b6100a7610180565b005b6100b16101a5565b6040516100be91906101cf565b60405180910390f35b6002546001545f546100d99190610215565b6100e39190610215565b506100ec6101ab565b506100f56101af565b506100fe610178565b503073ffffffffffffffffffffffffffffffffffffffff166342b148aa6040518163ffffffff1660e01b8152600401602060405180830381865afa158015610148573d5f803e3d5ffd5b505050506040513d601f19601f8201168201806040525081019061016c9190610276565b50565b5f61012c905090565b5f60c8905090565b6002546001546101909190610215565b506101996101af565b506101a2610178565b50565b60025481565b5f90565b5f6064905090565b5f819050919050565b6101c9816101b7565b82525050565b5f6020820190506101e25f8301846101c0565b92915050565b7f4e487b71000000000000000000000000000000000000000000000000000000005f52601160045260245ffd5b5f61021f826101b7565b915061022a836101b7565b9250828201905080821115610242576102416101e8565b5b92915050565b5f80fd5b610255816101b7565b811461025f575f80fd5b50565b5f815190506102708161024c565b92915050565b5f6020828403121561028b5761028a610248565b5b5f61029884828501610262565b9150509291505056fea2646970667358221220b9d4f647c7628011b0bd506218d9f2124cca62935dcac8cd80761ef4c744f72864736f6c634300081a0033",
					"opcodes": "PUSH1 0x80 PUSH1 0x40 MSTORE PUSH0 DUP1 SSTORE PUSH1 0x1 DUP1 SSTORE PUSH1 0x2 DUP1 SSTORE CALLVALUE DUP1 ISZERO PUSH1 0x19 JUMPI PUSH0 DUP1 REVERT JUMPDEST POP PUSH2 0x2D7 DUP1 PUSH2 0x27 PUSH0 CODECOPY PUSH0 RETURN INVALID PUSH1 0x80 PUSH1 0x40 MSTORE CALLVALUE DUP1 ISZERO PUSH2 0xF JUMPI PUSH0 DUP1 REVERT JUMPDEST POP PUSH1 0x4 CALLDATASIZE LT PUSH2 0x55 JUMPI PUSH0 CALLDATALOAD PUSH1 0xE0 SHR DUP1 PUSH4 0x335D00C2 EQ PUSH2 0x59 JUMPI DUP1 PUSH4 0x42B148AA EQ PUSH2 0x63 JUMPI DUP1 PUSH4 0x4B73383F EQ PUSH2 0x81 JUMPI DUP1 PUSH4 0xC3BE8E2C EQ PUSH2 0x9F JUMPI DUP1 PUSH4 0xC5D7802E EQ PUSH2 0xA9 JUMPI JUMPDEST PUSH0 DUP1 REVERT JUMPDEST PUSH2 0x61 PUSH2 0xC7 JUMP JUMPDEST STOP JUMPDEST PUSH2 0x6B PUSH2 0x16F JUMP JUMPDEST PUSH1 0x40 MLOAD PUSH2 0x78 SWAP2 SWAP1 PUSH2 0x1CF JUMP JUMPDEST PUSH1 0x40 MLOAD DUP1 SWAP2 SUB SWAP1 RETURN JUMPDEST PUSH2 0x89 PUSH2 0x178 JUMP JUMPDEST PUSH1 0x40 MLOAD PUSH2 0x96 SWAP2 SWAP1 PUSH2 0x1CF JUMP JUMPDEST PUSH1 0x40 MLOAD DUP1 SWAP2 SUB SWAP1 RETURN JUMPDEST PUSH2 0xA7 PUSH2 0x180 JUMP JUMPDEST STOP JUMPDEST PUSH2 0xB1 PUSH2 0x1A5 JUMP JUMPDEST PUSH1 0x40 MLOAD PUSH2 0xBE SWAP2 SWAP1 PUSH2 0x1CF JUMP JUMPDEST PUSH1 0x40 MLOAD DUP1 SWAP2 SUB SWAP1 RETURN JUMPDEST PUSH1 0x2 SLOAD PUSH1 0x1 SLOAD PUSH0 SLOAD PUSH2 0xD9 SWAP2 SWAP1 PUSH2 0x215 JUMP JUMPDEST PUSH2 0xE3 SWAP2 SWAP1 PUSH2 0x215 JUMP JUMPDEST POP PUSH2 0xEC PUSH2 0x1AB JUMP JUMPDEST POP PUSH2 0xF5 PUSH2 0x1AF JUMP JUMPDEST POP PUSH2 0xFE PUSH2 0x178 JUMP JUMPDEST POP ADDRESS PUSH20 0xFFFFFFFFFFFFFFFFFFFFFFFFFFFFFFFFFFFFFFFF AND PUSH4 0x42B148AA PUSH1 0x40 MLOAD DUP2 PUSH4 0xFFFFFFFF AND PUSH1 0xE0 SHL DUP2 MSTORE PUSH1 0x4 ADD PUSH1 0x20 PUSH1 0x40 MLOAD DUP1 DUP4 SUB DUP2 DUP7 GAS STATICCALL ISZERO DUP1 ISZERO PUSH2 0x148 JUMPI RETURNDATASIZE PUSH0 DUP1 RETURNDATACOPY RETURNDATASIZE PUSH0 REVERT JUMPDEST POP POP POP POP PUSH1 0x40 MLOAD RETURNDATASIZE PUSH1 0x1F NOT PUSH1 0x1F DUP3 ADD AND DUP3 ADD DUP1 PUSH1 0x40 MSTORE POP DUP2 ADD SWAP1 PUSH2 0x16C SWAP2 SWAP1 PUSH2 0x276 JUMP JUMPDEST POP JUMP JUMPDEST PUSH0 PUSH2 0x12C SWAP1 POP SWAP1 JUMP JUMPDEST PUSH0 PUSH1 0xC8 SWAP1 POP SWAP1 JUMP JUMPDEST PUSH1 0x2 SLOAD PUSH1 0x1 SLOAD PUSH2 0x190 SWAP2 SWAP1 PUSH2 0x215 JUMP JUMPDEST POP PUSH2 0x199 PUSH2 0x1AF JUMP JUMPDEST POP PUSH2 0x1A2 PUSH2 0x178 JUMP JUMPDEST POP JUMP JUMPDEST PUSH1 0x2 SLOAD DUP2 JUMP JUMPDEST PUSH0 SWAP1 JUMP JUMPDEST PUSH0 PUSH1 0x64 SWAP1 POP SWAP1 JUMP JUMPDEST PUSH0 DUP2 SWAP1 POP SWAP2 SWAP1 POP JUMP JUMPDEST PUSH2 0x1C9 DUP2 PUSH2 0x1B7 JUMP JUMPDEST DUP3 MSTORE POP POP JUMP JUMPDEST PUSH0 PUSH1 0x20 DUP3 ADD SWAP1 POP PUSH2 0x1E2 PUSH0 DUP4 ADD DUP5 PUSH2 0x1C0 JUMP JUMPDEST SWAP3 SWAP2 POP POP JUMP JUMPDEST PUSH32 0x4E487B7100000000000000000000000000000000000000000000000000000000 PUSH0 MSTORE PUSH1 0x11 PUSH1 0x4 MSTORE PUSH1 0x24 PUSH0 REVERT JUMPDEST PUSH0 PUSH2 0x21F DUP3 PUSH2 0x1B7 JUMP JUMPDEST SWAP2 POP PUSH2 0x22A DUP4 PUSH2 0x1B7 JUMP JUMPDEST SWAP3 POP DUP3 DUP3 ADD SWAP1 POP DUP1 DUP3 GT ISZERO PUSH2 0x242 JUMPI PUSH2 0x241 PUSH2 0x1E8 JUMP JUMPDEST JUMPDEST SWAP3 SWAP2 POP POP JUMP JUMPDEST PUSH0 DUP1 REVERT JUMPDEST PUSH2 0x255 DUP2 PUSH2 0x1B7 JUMP JUMPDEST DUP2 EQ PUSH2 0x25F JUMPI PUSH0 DUP1 REVERT JUMPDEST POP JUMP JUMPDEST PUSH0 DUP2 MLOAD SWAP1 POP PUSH2 0x270 DUP2 PUSH2 0x24C JUMP JUMPDEST SWAP3 SWAP2 POP POP JUMP JUMPDEST PUSH0 PUSH1 0x20 DUP3 DUP5 SUB SLT ISZERO PUSH2 0x28B JUMPI PUSH2 0x28A PUSH2 0x248 JUMP JUMPDEST JUMPDEST PUSH0 PUSH2 0x298 DUP5 DUP3 DUP6 ADD PUSH2 0x262 JUMP JUMPDEST SWAP2 POP POP SWAP3 SWAP2 POP POP JUMP INVALID LOG2 PUSH5 0x6970667358 0x22 SLT KECCAK256 0xB9 0xD4 0xF6 SELFBALANCE 0xC7 PUSH3 0x8011B0 0xBD POP PUSH3 0x18D9F2 SLT 0x4C 0xCA PUSH3 0x935DCA 0xC8 0xCD DUP1 PUSH23 0x1EF4C744F72864736F6C634300081A0033000000000000 "
				},
				"gasEstimates": {
					"creation": {
						"codeDepositCost": "145400",
						"executionCost": "49405",
						"totalCost": "194805"
					},
					"external": {
						"examples()": "infinite",
						"examples2()": "infinite",
						"externalFunc()": "332",
						"publicFunc()": "354",
						"z()": "2491"
					}
				},
				"methodIdentifiers": {
					"examples()": "335d00c2",
					"examples2()": "c3be8e2c",
					"externalFunc()": "42b148aa",
					"publicFunc()": "4b73383f",
					"z()": "c5d7802e"
				}
			},
			"storageLayout": {
				"storage": [
					{
						"astId": 4,
						"contract": "Visibility.sol:VisibilityChild",
						"label": "x",
						"offset": 0,
						"slot": "0",
						"type": "t_uint256"
					},
					{
						"astId": 7,
						"contract": "Visibility.sol:VisibilityChild",
						"label": "y",
						"offset": 0,
						"slot": "1",
						"type": "t_uint256"
					},
					{
						"astId": 10,
						"contract": "Visibility.sol:VisibilityChild",
						"label": "z",
						"offset": 0,
						"slot": "2",
						"type": "t_uint256"
					}
				],
				"types": {
					"t_uint256": {
						"encoding": "inplace",
						"label": "uint256",
						"numberOfBytes": "32"
					}
				}
			},
			"userdoc": {
				"kind": "user",
				"methods": {},
				"version": 1
			}
		}
	}
}