{
	"Event.sol": {
		"Event": {
			"abi": [
				{
					"anonymous": false,
					"inputs": [
						{
							"indexed": true,
							"internalType": "address",
							"name": "sender",
							"type": "address"
						},
						{
							"indexed": false,
							"internalType": "uint256",
							"name": "val",
							"type": "uint256"
						}
					],
					"name": "IndexLog",
					"type": "event"
				},
				{
					"anonymous": false,
					"inputs": [
						{
							"indexed": false,
							"internalType": "string",
							"name": "message",
							"type": "string"
						},
						{
							"indexed": false,
							"internalType": "uint256",
							"name": "val",
							"type": "uint256"
						}
					],
					"name": "Log",
					"type": "event"
				},
				{
					"anonymous": false,
					"inputs": [
						{
							"indexed": true,
							"internalType": "address",
							"name": "_from",
							"type": "address"
						},
						{
							"indexed": true,
							"internalType": "address",
							"name": "_to",
							"type": "address"
						},
						{
							"indexed": false,
							"internalType": "string",
							"name": "message",
							"type": "string"
						}
					],
					"name": "Message",
					"type": "event"
				},
				{
					"inputs": [],
					"name": "example",
					"outputs": [],
					"stateMutability": "nonpayable",
					"type": "function"
				},
				{
					"inputs": [
						{
							"internalType": "address",
							"name": "_to",
							"type": "address"
						},
						{
							"internalType": "string",
							"name": "message",
							"type": "string"
						}
					],
					"name": "sendMessage",
					"outputs": [],
					"stateMutability": "nonpayable",
					"type": "function"
				}
			],
			"devdoc": {
				"kind": "dev",
				"methods": {},
				"version": 1
			},
			"evm": {
				"assembly": "    /* \"Event.sol\":57:528  contract Event {... */\n  mstore(0x40, 0x80)\n  callvalue\n  dup1\n  iszero\n  tag_1\n  jumpi\n  0x00\n  dup1\n  revert\ntag_1:\n  pop\n  dataSize(sub_0)\n  dup1\n  dataOffset(sub_0)\n  0x00\n  codecopy\n  0x00\n  return\nstop\n\nsub_0: assembly {\n        /* \"Event.sol\":57:528  contract Event {... */\n      mstore(0x40, 0x80)\n      callvalue\n      dup1\n      iszero\n      tag_1\n      jumpi\n      0x00\n      dup1\n      revert\n    tag_1:\n      pop\n      jumpi(tag_2, lt(calldatasize, 0x04))\n      shr(0xe0, calldataload(0x00))\n      dup1\n      0x54353f2f\n      eq\n      tag_3\n      jumpi\n      dup1\n      0xde6f24bb\n      eq\n      tag_4\n      jumpi\n    tag_2:\n      0x00\n      dup1\n      revert\n        /* \"Event.sol\":202:317  function example() external {... */\n    tag_3:\n      tag_5\n      tag_6\n      jump\t// in\n    tag_5:\n      stop\n        /* \"Event.sol\":403:526  function sendMessage(address _to, string calldata message) external {... */\n    tag_4:\n      tag_7\n      0x04\n      dup1\n      calldatasize\n      sub\n      dup2\n      add\n      swap1\n      tag_8\n      swap2\n      swap1\n      tag_9\n      jump\t// in\n    tag_8:\n      tag_10\n      jump\t// in\n    tag_7:\n      stop\n        /* \"Event.sol\":202:317  function example() external {... */\n    tag_6:\n        /* \"Event.sol\":245:270  Log(\"I'm a log event\", 1) */\n      0xdd970dd9b5bfe707922155b058a407655cb18288b807e2216442bca8ad83d6b5\n        /* \"Event.sol\":268:269  1 */\n      0x01\n        /* \"Event.sol\":245:270  Log(\"I'm a log event\", 1) */\n      mload(0x40)\n      tag_12\n      swap2\n      swap1\n      tag_13\n      jump\t// in\n    tag_12:\n      mload(0x40)\n      dup1\n      swap2\n      sub\n      swap1\n      log1\n        /* \"Event.sol\":294:304  msg.sender */\n      caller\n        /* \"Event.sol\":285:310  IndexLog(msg.sender, 789) */\n      0xffffffffffffffffffffffffffffffffffffffff\n      and\n      0xe5324ff98d889ef468aee09204b7b862c8ff54faf05306478c16a9278c6b25eb\n        /* \"Event.sol\":306:309  789 */\n      0x0315\n        /* \"Event.sol\":285:310  IndexLog(msg.sender, 789) */\n      mload(0x40)\n      tag_14\n      swap2\n      swap1\n      tag_15\n      jump\t// in\n    tag_14:\n      mload(0x40)\n      dup1\n      swap2\n      sub\n      swap1\n      log2\n        /* \"Event.sol\":202:317  function example() external {... */\n      jump\t// out\n        /* \"Event.sol\":403:526  function sendMessage(address _to, string calldata message) external {... */\n    tag_10:\n        /* \"Event.sol\":506:509  _to */\n      dup3\n        /* \"Event.sol\":486:519  Message(msg.sender, _to, message) */\n      0xffffffffffffffffffffffffffffffffffffffff\n      and\n        /* \"Event.sol\":494:504  msg.sender */\n      caller\n        /* \"Event.sol\":486:519  Message(msg.sender, _to, message) */\n      0xffffffffffffffffffffffffffffffffffffffff\n      and\n      0xb3dbe9e9894ca2c11cb6c80bd0b0bccb9f5b41d612dbeeda0d5474de40b874fe\n        /* \"Event.sol\":511:518  message */\n      dup5\n      dup5\n        /* \"Event.sol\":486:519  Message(msg.sender, _to, message) */\n      mload(0x40)\n      tag_17\n      swap3\n      swap2\n      swap1\n      tag_18\n      jump\t// in\n    tag_17:\n      mload(0x40)\n      dup1\n      swap2\n      sub\n      swap1\n      log3\n        /* \"Event.sol\":403:526  function sendMessage(address _to, string calldata message) external {... */\n      pop\n      pop\n      pop\n      jump\t// out\n        /* \"#utility.yul\":88:205   */\n    tag_20:\n        /* \"#utility.yul\":197:198   */\n      0x00\n        /* \"#utility.yul\":194:195   */\n      dup1\n        /* \"#utility.yul\":187:199   */\n      revert\n        /* \"#utility.yul\":211:328   */\n    tag_21:\n        /* \"#utility.yul\":320:321   */\n      0x00\n        /* \"#utility.yul\":317:318   */\n      dup1\n        /* \"#utility.yul\":310:322   */\n      revert\n        /* \"#utility.yul\":334:460   */\n    tag_22:\n        /* \"#utility.yul\":371:378   */\n      0x00\n        /* \"#utility.yul\":411:453   */\n      0xffffffffffffffffffffffffffffffffffffffff\n        /* \"#utility.yul\":404:409   */\n      dup3\n        /* \"#utility.yul\":400:454   */\n      and\n        /* \"#utility.yul\":389:454   */\n      swap1\n      pop\n        /* \"#utility.yul\":334:460   */\n      swap2\n      swap1\n      pop\n      jump\t// out\n        /* \"#utility.yul\":466:562   */\n    tag_23:\n        /* \"#utility.yul\":503:510   */\n      0x00\n        /* \"#utility.yul\":532:556   */\n      tag_50\n        /* \"#utility.yul\":550:555   */\n      dup3\n        /* \"#utility.yul\":532:556   */\n      tag_22\n      jump\t// in\n    tag_50:\n        /* \"#utility.yul\":521:556   */\n      swap1\n      pop\n        /* \"#utility.yul\":466:562   */\n      swap2\n      swap1\n      pop\n      jump\t// out\n        /* \"#utility.yul\":568:690   */\n    tag_24:\n        /* \"#utility.yul\":641:665   */\n      tag_52\n        /* \"#utility.yul\":659:664   */\n      dup2\n        /* \"#utility.yul\":641:665   */\n      tag_23\n      jump\t// in\n    tag_52:\n        /* \"#utility.yul\":634:639   */\n      dup2\n        /* \"#utility.yul\":631:666   */\n      eq\n        /* \"#utility.yul\":621:684   */\n      tag_53\n      jumpi\n        /* \"#utility.yul\":680:681   */\n      0x00\n        /* \"#utility.yul\":677:678   */\n      dup1\n        /* \"#utility.yul\":670:682   */\n      revert\n        /* \"#utility.yul\":621:684   */\n    tag_53:\n        /* \"#utility.yul\":568:690   */\n      pop\n      jump\t// out\n        /* \"#utility.yul\":696:835   */\n    tag_25:\n        /* \"#utility.yul\":742:747   */\n      0x00\n        /* \"#utility.yul\":780:786   */\n      dup2\n        /* \"#utility.yul\":767:787   */\n      calldataload\n        /* \"#utility.yul\":758:787   */\n      swap1\n      pop\n        /* \"#utility.yul\":796:829   */\n      tag_55\n        /* \"#utility.yul\":823:828   */\n      dup2\n        /* \"#utility.yul\":796:829   */\n      tag_24\n      jump\t// in\n    tag_55:\n        /* \"#utility.yul\":696:835   */\n      swap3\n      swap2\n      pop\n      pop\n      jump\t// out\n        /* \"#utility.yul\":841:958   */\n    tag_26:\n        /* \"#utility.yul\":950:951   */\n      0x00\n        /* \"#utility.yul\":947:948   */\n      dup1\n        /* \"#utility.yul\":940:952   */\n      revert\n        /* \"#utility.yul\":964:1081   */\n    tag_27:\n        /* \"#utility.yul\":1073:1074   */\n      0x00\n        /* \"#utility.yul\":1070:1071   */\n      dup1\n        /* \"#utility.yul\":1063:1075   */\n      revert\n        /* \"#utility.yul\":1087:1204   */\n    tag_28:\n        /* \"#utility.yul\":1196:1197   */\n      0x00\n        /* \"#utility.yul\":1193:1194   */\n      dup1\n        /* \"#utility.yul\":1186:1198   */\n      revert\n        /* \"#utility.yul\":1224:1777   */\n    tag_29:\n        /* \"#utility.yul\":1282:1290   */\n      0x00\n        /* \"#utility.yul\":1292:1298   */\n      dup1\n        /* \"#utility.yul\":1342:1345   */\n      dup4\n        /* \"#utility.yul\":1335:1339   */\n      0x1f\n        /* \"#utility.yul\":1327:1333   */\n      dup5\n        /* \"#utility.yul\":1323:1340   */\n      add\n        /* \"#utility.yul\":1319:1346   */\n      slt\n        /* \"#utility.yul\":1309:1431   */\n      tag_60\n      jumpi\n        /* \"#utility.yul\":1350:1429   */\n      tag_61\n      tag_26\n      jump\t// in\n    tag_61:\n        /* \"#utility.yul\":1309:1431   */\n    tag_60:\n        /* \"#utility.yul\":1463:1469   */\n      dup3\n        /* \"#utility.yul\":1450:1470   */\n      calldataload\n        /* \"#utility.yul\":1440:1470   */\n      swap1\n      pop\n        /* \"#utility.yul\":1493:1511   */\n      0xffffffffffffffff\n        /* \"#utility.yul\":1485:1491   */\n      dup2\n        /* \"#utility.yul\":1482:1512   */\n      gt\n        /* \"#utility.yul\":1479:1596   */\n      iszero\n      tag_62\n      jumpi\n        /* \"#utility.yul\":1515:1594   */\n      tag_63\n      tag_27\n      jump\t// in\n    tag_63:\n        /* \"#utility.yul\":1479:1596   */\n    tag_62:\n        /* \"#utility.yul\":1629:1633   */\n      0x20\n        /* \"#utility.yul\":1621:1627   */\n      dup4\n        /* \"#utility.yul\":1617:1634   */\n      add\n        /* \"#utility.yul\":1605:1634   */\n      swap2\n      pop\n        /* \"#utility.yul\":1683:1686   */\n      dup4\n        /* \"#utility.yul\":1675:1679   */\n      0x01\n        /* \"#utility.yul\":1667:1673   */\n      dup3\n        /* \"#utility.yul\":1663:1680   */\n      mul\n        /* \"#utility.yul\":1653:1661   */\n      dup4\n        /* \"#utility.yul\":1649:1681   */\n      add\n        /* \"#utility.yul\":1646:1687   */\n      gt\n        /* \"#utility.yul\":1643:1771   */\n      iszero\n      tag_64\n      jumpi\n        /* \"#utility.yul\":1690:1769   */\n      tag_65\n      tag_28\n      jump\t// in\n    tag_65:\n        /* \"#utility.yul\":1643:1771   */\n    tag_64:\n        /* \"#utility.yul\":1224:1777   */\n      swap3\n      pop\n      swap3\n      swap1\n      pop\n      jump\t// out\n        /* \"#utility.yul\":1783:2457   */\n    tag_9:\n        /* \"#utility.yul\":1863:1869   */\n      0x00\n        /* \"#utility.yul\":1871:1877   */\n      dup1\n        /* \"#utility.yul\":1879:1885   */\n      0x00\n        /* \"#utility.yul\":1928:1930   */\n      0x40\n        /* \"#utility.yul\":1916:1925   */\n      dup5\n        /* \"#utility.yul\":1907:1914   */\n      dup7\n        /* \"#utility.yul\":1903:1926   */\n      sub\n        /* \"#utility.yul\":1899:1931   */\n      slt\n        /* \"#utility.yul\":1896:2015   */\n      iszero\n      tag_67\n      jumpi\n        /* \"#utility.yul\":1934:2013   */\n      tag_68\n      tag_20\n      jump\t// in\n    tag_68:\n        /* \"#utility.yul\":1896:2015   */\n    tag_67:\n        /* \"#utility.yul\":2054:2055   */\n      0x00\n        /* \"#utility.yul\":2079:2132   */\n      tag_69\n        /* \"#utility.yul\":2124:2131   */\n      dup7\n        /* \"#utility.yul\":2115:2121   */\n      dup3\n        /* \"#utility.yul\":2104:2113   */\n      dup8\n        /* \"#utility.yul\":2100:2122   */\n      add\n        /* \"#utility.yul\":2079:2132   */\n      tag_25\n      jump\t// in\n    tag_69:\n        /* \"#utility.yul\":2069:2132   */\n      swap4\n      pop\n        /* \"#utility.yul\":2025:2142   */\n      pop\n        /* \"#utility.yul\":2209:2211   */\n      0x20\n        /* \"#utility.yul\":2198:2207   */\n      dup5\n        /* \"#utility.yul\":2194:2212   */\n      add\n        /* \"#utility.yul\":2181:2213   */\n      calldataload\n        /* \"#utility.yul\":2240:2258   */\n      0xffffffffffffffff\n        /* \"#utility.yul\":2232:2238   */\n      dup2\n        /* \"#utility.yul\":2229:2259   */\n      gt\n        /* \"#utility.yul\":2226:2343   */\n      iszero\n      tag_70\n      jumpi\n        /* \"#utility.yul\":2262:2341   */\n      tag_71\n      tag_21\n      jump\t// in\n    tag_71:\n        /* \"#utility.yul\":2226:2343   */\n    tag_70:\n        /* \"#utility.yul\":2375:2440   */\n      tag_72\n        /* \"#utility.yul\":2432:2439   */\n      dup7\n        /* \"#utility.yul\":2423:2429   */\n      dup3\n        /* \"#utility.yul\":2412:2421   */\n      dup8\n        /* \"#utility.yul\":2408:2430   */\n      add\n        /* \"#utility.yul\":2375:2440   */\n      tag_29\n      jump\t// in\n    tag_72:\n        /* \"#utility.yul\":2357:2440   */\n      swap3\n      pop\n      swap3\n      pop\n        /* \"#utility.yul\":2152:2450   */\n      pop\n        /* \"#utility.yul\":1783:2457   */\n      swap3\n      pop\n      swap3\n      pop\n      swap3\n      jump\t// out\n        /* \"#utility.yul\":2463:2632   */\n    tag_30:\n        /* \"#utility.yul\":2547:2558   */\n      0x00\n        /* \"#utility.yul\":2581:2587   */\n      dup3\n        /* \"#utility.yul\":2576:2579   */\n      dup3\n        /* \"#utility.yul\":2569:2588   */\n      mstore\n        /* \"#utility.yul\":2621:2625   */\n      0x20\n        /* \"#utility.yul\":2616:2619   */\n      dup3\n        /* \"#utility.yul\":2612:2626   */\n      add\n        /* \"#utility.yul\":2597:2626   */\n      swap1\n      pop\n        /* \"#utility.yul\":2463:2632   */\n      swap3\n      swap2\n      pop\n      pop\n      jump\t// out\n        /* \"#utility.yul\":2638:2803   */\n    tag_31:\n        /* \"#utility.yul\":2778:2795   */\n      0x49276d2061206c6f67206576656e740000000000000000000000000000000000\n        /* \"#utility.yul\":2774:2775   */\n      0x00\n        /* \"#utility.yul\":2766:2772   */\n      dup3\n        /* \"#utility.yul\":2762:2776   */\n      add\n        /* \"#utility.yul\":2755:2796   */\n      mstore\n        /* \"#utility.yul\":2638:2803   */\n      pop\n      jump\t// out\n        /* \"#utility.yul\":2809:3175   */\n    tag_32:\n        /* \"#utility.yul\":2951:2954   */\n      0x00\n        /* \"#utility.yul\":2972:3039   */\n      tag_76\n        /* \"#utility.yul\":3036:3038   */\n      0x0f\n        /* \"#utility.yul\":3031:3034   */\n      dup4\n        /* \"#utility.yul\":2972:3039   */\n      tag_30\n      jump\t// in\n    tag_76:\n        /* \"#utility.yul\":2965:3039   */\n      swap2\n      pop\n        /* \"#utility.yul\":3048:3141   */\n      tag_77\n        /* \"#utility.yul\":3137:3140   */\n      dup3\n        /* \"#utility.yul\":3048:3141   */\n      tag_31\n      jump\t// in\n    tag_77:\n        /* \"#utility.yul\":3166:3168   */\n      0x20\n        /* \"#utility.yul\":3161:3164   */\n      dup3\n        /* \"#utility.yul\":3157:3169   */\n      add\n        /* \"#utility.yul\":3150:3169   */\n      swap1\n      pop\n        /* \"#utility.yul\":2809:3175   */\n      swap2\n      swap1\n      pop\n      jump\t// out\n        /* \"#utility.yul\":3181:3266   */\n    tag_33:\n        /* \"#utility.yul\":3226:3233   */\n      0x00\n        /* \"#utility.yul\":3255:3260   */\n      dup2\n        /* \"#utility.yul\":3244:3260   */\n      swap1\n      pop\n        /* \"#utility.yul\":3181:3266   */\n      swap2\n      swap1\n      pop\n      jump\t// out\n        /* \"#utility.yul\":3272:3349   */\n    tag_34:\n        /* \"#utility.yul\":3309:3316   */\n      0x00\n        /* \"#utility.yul\":3338:3343   */\n      dup2\n        /* \"#utility.yul\":3327:3343   */\n      swap1\n      pop\n        /* \"#utility.yul\":3272:3349   */\n      swap2\n      swap1\n      pop\n      jump\t// out\n        /* \"#utility.yul\":3355:3415   */\n    tag_35:\n        /* \"#utility.yul\":3383:3386   */\n      0x00\n        /* \"#utility.yul\":3404:3409   */\n      dup2\n        /* \"#utility.yul\":3397:3409   */\n      swap1\n      pop\n        /* \"#utility.yul\":3355:3415   */\n      swap2\n      swap1\n      pop\n      jump\t// out\n        /* \"#utility.yul\":3421:3579   */\n    tag_36:\n        /* \"#utility.yul\":3479:3488   */\n      0x00\n        /* \"#utility.yul\":3512:3573   */\n      tag_82\n        /* \"#utility.yul\":3530:3572   */\n      tag_83\n        /* \"#utility.yul\":3539:3571   */\n      tag_84\n        /* \"#utility.yul\":3565:3570   */\n      dup5\n        /* \"#utility.yul\":3539:3571   */\n      tag_33\n      jump\t// in\n    tag_84:\n        /* \"#utility.yul\":3530:3572   */\n      tag_35\n      jump\t// in\n    tag_83:\n        /* \"#utility.yul\":3512:3573   */\n      tag_34\n      jump\t// in\n    tag_82:\n        /* \"#utility.yul\":3499:3573   */\n      swap1\n      pop\n        /* \"#utility.yul\":3421:3579   */\n      swap2\n      swap1\n      pop\n      jump\t// out\n        /* \"#utility.yul\":3585:3732   */\n    tag_37:\n        /* \"#utility.yul\":3680:3725   */\n      tag_86\n        /* \"#utility.yul\":3719:3724   */\n      dup2\n        /* \"#utility.yul\":3680:3725   */\n      tag_36\n      jump\t// in\n    tag_86:\n        /* \"#utility.yul\":3675:3678   */\n      dup3\n        /* \"#utility.yul\":3668:3726   */\n      mstore\n        /* \"#utility.yul\":3585:3732   */\n      pop\n      pop\n      jump\t// out\n        /* \"#utility.yul\":3738:4283   */\n    tag_13:\n        /* \"#utility.yul\":3940:3944   */\n      0x00\n        /* \"#utility.yul\":3978:3980   */\n      0x40\n        /* \"#utility.yul\":3967:3976   */\n      dup3\n        /* \"#utility.yul\":3963:3981   */\n      add\n        /* \"#utility.yul\":3955:3981   */\n      swap1\n      pop\n        /* \"#utility.yul\":4027:4036   */\n      dup2\n        /* \"#utility.yul\":4021:4025   */\n      dup2\n        /* \"#utility.yul\":4017:4037   */\n      sub\n        /* \"#utility.yul\":4013:4014   */\n      0x00\n        /* \"#utility.yul\":4002:4011   */\n      dup4\n        /* \"#utility.yul\":3998:4015   */\n      add\n        /* \"#utility.yul\":3991:4038   */\n      mstore\n        /* \"#utility.yul\":4055:4186   */\n      tag_88\n        /* \"#utility.yul\":4181:4185   */\n      dup2\n        /* \"#utility.yul\":4055:4186   */\n      tag_32\n      jump\t// in\n    tag_88:\n        /* \"#utility.yul\":4047:4186   */\n      swap1\n      pop\n        /* \"#utility.yul\":4196:4276   */\n      tag_89\n        /* \"#utility.yul\":4272:4274   */\n      0x20\n        /* \"#utility.yul\":4261:4270   */\n      dup4\n        /* \"#utility.yul\":4257:4275   */\n      add\n        /* \"#utility.yul\":4248:4254   */\n      dup5\n        /* \"#utility.yul\":4196:4276   */\n      tag_37\n      jump\t// in\n    tag_89:\n        /* \"#utility.yul\":3738:4283   */\n      swap3\n      swap2\n      pop\n      pop\n      jump\t// out\n        /* \"#utility.yul\":4289:4376   */\n    tag_38:\n        /* \"#utility.yul\":4336:4343   */\n      0x00\n        /* \"#utility.yul\":4365:4370   */\n      dup2\n        /* \"#utility.yul\":4354:4370   */\n      swap1\n      pop\n        /* \"#utility.yul\":4289:4376   */\n      swap2\n      swap1\n      pop\n      jump\t// out\n        /* \"#utility.yul\":4382:4544   */\n    tag_39:\n        /* \"#utility.yul\":4442:4451   */\n      0x00\n        /* \"#utility.yul\":4475:4538   */\n      tag_92\n        /* \"#utility.yul\":4493:4537   */\n      tag_93\n        /* \"#utility.yul\":4502:4536   */\n      tag_94\n        /* \"#utility.yul\":4530:4535   */\n      dup5\n        /* \"#utility.yul\":4502:4536   */\n      tag_38\n      jump\t// in\n    tag_94:\n        /* \"#utility.yul\":4493:4537   */\n      tag_35\n      jump\t// in\n    tag_93:\n        /* \"#utility.yul\":4475:4538   */\n      tag_34\n      jump\t// in\n    tag_92:\n        /* \"#utility.yul\":4462:4538   */\n      swap1\n      pop\n        /* \"#utility.yul\":4382:4544   */\n      swap2\n      swap1\n      pop\n      jump\t// out\n        /* \"#utility.yul\":4550:4701   */\n    tag_40:\n        /* \"#utility.yul\":4647:4694   */\n      tag_96\n        /* \"#utility.yul\":4688:4693   */\n      dup2\n        /* \"#utility.yul\":4647:4694   */\n      tag_39\n      jump\t// in\n    tag_96:\n        /* \"#utility.yul\":4642:4645   */\n      dup3\n        /* \"#utility.yul\":4635:4695   */\n      mstore\n        /* \"#utility.yul\":4550:4701   */\n      pop\n      pop\n      jump\t// out\n        /* \"#utility.yul\":4707:4949   */\n    tag_15:\n        /* \"#utility.yul\":4810:4814   */\n      0x00\n        /* \"#utility.yul\":4848:4850   */\n      0x20\n        /* \"#utility.yul\":4837:4846   */\n      dup3\n        /* \"#utility.yul\":4833:4851   */\n      add\n        /* \"#utility.yul\":4825:4851   */\n      swap1\n      pop\n        /* \"#utility.yul\":4861:4942   */\n      tag_98\n        /* \"#utility.yul\":4939:4940   */\n      0x00\n        /* \"#utility.yul\":4928:4937   */\n      dup4\n        /* \"#utility.yul\":4924:4941   */\n      add\n        /* \"#utility.yul\":4915:4921   */\n      dup5\n        /* \"#utility.yul\":4861:4942   */\n      tag_40\n      jump\t// in\n    tag_98:\n        /* \"#utility.yul\":4707:4949   */\n      swap3\n      swap2\n      pop\n      pop\n      jump\t// out\n        /* \"#utility.yul\":4955:5103   */\n    tag_41:\n        /* \"#utility.yul\":5053:5059   */\n      dup3\n        /* \"#utility.yul\":5048:5051   */\n      dup2\n        /* \"#utility.yul\":5043:5046   */\n      dup4\n        /* \"#utility.yul\":5030:5060   */\n      calldatacopy\n        /* \"#utility.yul\":5094:5095   */\n      0x00\n        /* \"#utility.yul\":5085:5091   */\n      dup4\n        /* \"#utility.yul\":5080:5083   */\n      dup4\n        /* \"#utility.yul\":5076:5092   */\n      add\n        /* \"#utility.yul\":5069:5096   */\n      mstore\n        /* \"#utility.yul\":4955:5103   */\n      pop\n      pop\n      pop\n      jump\t// out\n        /* \"#utility.yul\":5109:5211   */\n    tag_42:\n        /* \"#utility.yul\":5150:5156   */\n      0x00\n        /* \"#utility.yul\":5201:5203   */\n      0x1f\n        /* \"#utility.yul\":5197:5204   */\n      not\n        /* \"#utility.yul\":5192:5194   */\n      0x1f\n        /* \"#utility.yul\":5185:5190   */\n      dup4\n        /* \"#utility.yul\":5181:5195   */\n      add\n        /* \"#utility.yul\":5177:5205   */\n      and\n        /* \"#utility.yul\":5167:5205   */\n      swap1\n      pop\n        /* \"#utility.yul\":5109:5211   */\n      swap2\n      swap1\n      pop\n      jump\t// out\n        /* \"#utility.yul\":5241:5558   */\n    tag_43:\n        /* \"#utility.yul\":5339:5342   */\n      0x00\n        /* \"#utility.yul\":5360:5431   */\n      tag_102\n        /* \"#utility.yul\":5424:5430   */\n      dup4\n        /* \"#utility.yul\":5419:5422   */\n      dup6\n        /* \"#utility.yul\":5360:5431   */\n      tag_30\n      jump\t// in\n    tag_102:\n        /* \"#utility.yul\":5353:5431   */\n      swap4\n      pop\n        /* \"#utility.yul\":5441:5497   */\n      tag_103\n        /* \"#utility.yul\":5490:5496   */\n      dup4\n        /* \"#utility.yul\":5485:5488   */\n      dup6\n        /* \"#utility.yul\":5478:5483   */\n      dup5\n        /* \"#utility.yul\":5441:5497   */\n      tag_41\n      jump\t// in\n    tag_103:\n        /* \"#utility.yul\":5522:5551   */\n      tag_104\n        /* \"#utility.yul\":5544:5550   */\n      dup4\n        /* \"#utility.yul\":5522:5551   */\n      tag_42\n      jump\t// in\n    tag_104:\n        /* \"#utility.yul\":5517:5520   */\n      dup5\n        /* \"#utility.yul\":5513:5552   */\n      add\n        /* \"#utility.yul\":5506:5552   */\n      swap1\n      pop\n        /* \"#utility.yul\":5241:5558   */\n      swap4\n      swap3\n      pop\n      pop\n      pop\n      jump\t// out\n        /* \"#utility.yul\":5564:5897   */\n    tag_18:\n        /* \"#utility.yul\":5687:5691   */\n      0x00\n        /* \"#utility.yul\":5725:5727   */\n      0x20\n        /* \"#utility.yul\":5714:5723   */\n      dup3\n        /* \"#utility.yul\":5710:5728   */\n      add\n        /* \"#utility.yul\":5702:5728   */\n      swap1\n      pop\n        /* \"#utility.yul\":5774:5783   */\n      dup2\n        /* \"#utility.yul\":5768:5772   */\n      dup2\n        /* \"#utility.yul\":5764:5784   */\n      sub\n        /* \"#utility.yul\":5760:5761   */\n      0x00\n        /* \"#utility.yul\":5749:5758   */\n      dup4\n        /* \"#utility.yul\":5745:5762   */\n      add\n        /* \"#utility.yul\":5738:5785   */\n      mstore\n        /* \"#utility.yul\":5802:5890   */\n      tag_106\n        /* \"#utility.yul\":5885:5889   */\n      dup2\n        /* \"#utility.yul\":5876:5882   */\n      dup5\n        /* \"#utility.yul\":5868:5874   */\n      dup7\n        /* \"#utility.yul\":5802:5890   */\n      tag_43\n      jump\t// in\n    tag_106:\n        /* \"#utility.yul\":5794:5890   */\n      swap1\n      pop\n        /* \"#utility.yul\":5564:5897   */\n      swap4\n      swap3\n      pop\n      pop\n      pop\n      jump\t// out\n\n    auxdata: 0xa264697066735822122004cf20b16b1fddbdd067beb6a5e9875f85f9e31a3365c6879b69554c2cf36ebd64736f6c634300081a0033\n}\n",
				"bytecode": {
					"linkReferences": {},
					"object": "6080604052348015600e575f80fd5b506104398061001c5f395ff3fe608060405234801561000f575f80fd5b5060043610610034575f3560e01c806354353f2f14610038578063de6f24bb14610042575b5f80fd5b61004061005e565b005b61005c60048036038101906100579190610217565b6100e8565b005b7fdd970dd9b5bfe707922155b058a407655cb18288b807e2216442bca8ad83d6b5600160405161008e9190610319565b60405180910390a13373ffffffffffffffffffffffffffffffffffffffff167fe5324ff98d889ef468aee09204b7b862c8ff54faf05306478c16a9278c6b25eb6103156040516100de919061037e565b60405180910390a2565b8273ffffffffffffffffffffffffffffffffffffffff163373ffffffffffffffffffffffffffffffffffffffff167fb3dbe9e9894ca2c11cb6c80bd0b0bccb9f5b41d612dbeeda0d5474de40b874fe84846040516101479291906103e1565b60405180910390a3505050565b5f80fd5b5f80fd5b5f73ffffffffffffffffffffffffffffffffffffffff82169050919050565b5f6101858261015c565b9050919050565b6101958161017b565b811461019f575f80fd5b50565b5f813590506101b08161018c565b92915050565b5f80fd5b5f80fd5b5f80fd5b5f8083601f8401126101d7576101d66101b6565b5b8235905067ffffffffffffffff8111156101f4576101f36101ba565b5b6020830191508360018202830111156102105761020f6101be565b5b9250929050565b5f805f6040848603121561022e5761022d610154565b5b5f61023b868287016101a2565b935050602084013567ffffffffffffffff81111561025c5761025b610158565b5b610268868287016101c2565b92509250509250925092565b5f82825260208201905092915050565b7f49276d2061206c6f67206576656e7400000000000000000000000000000000005f82015250565b5f6102b8600f83610274565b91506102c382610284565b602082019050919050565b5f819050919050565b5f819050919050565b5f819050919050565b5f6103036102fe6102f9846102ce565b6102e0565b6102d7565b9050919050565b610313816102e9565b82525050565b5f6040820190508181035f830152610330816102ac565b905061033f602083018461030a565b92915050565b5f819050919050565b5f61036861036361035e84610345565b6102e0565b6102d7565b9050919050565b6103788161034e565b82525050565b5f6020820190506103915f83018461036f565b92915050565b828183375f83830152505050565b5f601f19601f8301169050919050565b5f6103c08385610274565b93506103cd838584610397565b6103d6836103a5565b840190509392505050565b5f6020820190508181035f8301526103fa8184866103b5565b9050939250505056fea264697066735822122004cf20b16b1fddbdd067beb6a5e9875f85f9e31a3365c6879b69554c2cf36ebd64736f6c634300081a0033",
					"opcodes": "PUSH1 0x80 PUSH1 0x40 MSTORE CALLVALUE DUP1 ISZERO PUSH1 0xE JUMPI PUSH0 DUP1 REVERT JUMPDEST POP PUSH2 0x439 DUP1 PUSH2 0x1C PUSH0 CODECOPY PUSH0 RETURN INVALID PUSH1 0x80 PUSH1 0x40 MSTORE CALLVALUE DUP1 ISZERO PUSH2 0xF JUMPI PUSH0 DUP1 REVERT JUMPDEST POP PUSH1 0x4 CALLDATASIZE LT PUSH2 0x34 JUMPI PUSH0 CALLDATALOAD PUSH1 0xE0 SHR DUP1 PUSH4 0x54353F2F EQ PUSH2 0x38 JUMPI DUP1 PUSH4 0xDE6F24BB EQ PUSH2 0x42 JUMPI JUMPDEST PUSH0 DUP1 REVERT JUMPDEST PUSH2 0x40 PUSH2 0x5E JUMP JUMPDEST STOP JUMPDEST PUSH2 0x5C PUSH1 0x4 DUP1 CALLDATASIZE SUB DUP2 ADD SWAP1 PUSH2 0x57 SWAP2 SWAP1 PUSH2 0x217 JUMP JUMPDEST PUSH2 0xE8 JUMP JUMPDEST STOP JUMPDEST PUSH32 0xDD970DD9B5BFE707922155B058A407655CB18288B807E2216442BCA8AD83D6B5 PUSH1 0x1 PUSH1 0x40 MLOAD PUSH2 0x8E SWAP2 SWAP1 PUSH2 0x319 JUMP JUMPDEST PUSH1 0x40 MLOAD DUP1 SWAP2 SUB SWAP1 LOG1 CALLER PUSH20 0xFFFFFFFFFFFFFFFFFFFFFFFFFFFFFFFFFFFFFFFF AND PUSH32 0xE5324FF98D889EF468AEE09204B7B862C8FF54FAF05306478C16A9278C6B25EB PUSH2 0x315 PUSH1 0x40 MLOAD PUSH2 0xDE SWAP2 SWAP1 PUSH2 0x37E JUMP JUMPDEST PUSH1 0x40 MLOAD DUP1 SWAP2 SUB SWAP1 LOG2 JUMP JUMPDEST DUP3 PUSH20 0xFFFFFFFFFFFFFFFFFFFFFFFFFFFFFFFFFFFFFFFF AND CALLER PUSH20 0xFFFFFFFFFFFFFFFFFFFFFFFFFFFFFFFFFFFFFFFF AND PUSH32 0xB3DBE9E9894CA2C11CB6C80BD0B0BCCB9F5B41D612DBEEDA0D5474DE40B874FE DUP5 DUP5 PUSH1 0x40 MLOAD PUSH2 0x147 SWAP3 SWAP2 SWAP1 PUSH2 0x3E1 JUMP JUMPDEST PUSH1 0x40 MLOAD DUP1 SWAP2 SUB SWAP1 LOG3 POP POP POP JUMP JUMPDEST PUSH0 DUP1 REVERT JUMPDEST PUSH0 DUP1 REVERT JUMPDEST PUSH0 PUSH20 0xFFFFFFFFFFFFFFFFFFFFFFFFFFFFFFFFFFFFFFFF DUP3 AND SWAP1 POP SWAP2 SWAP1 POP JUMP JUMPDEST PUSH0 PUSH2 0x185 DUP3 PUSH2 0x15C JUMP JUMPDEST SWAP1 POP SWAP2 SWAP1 POP JUMP JUMPDEST PUSH2 0x195 DUP2 PUSH2 0x17B JUMP JUMPDEST DUP2 EQ PUSH2 0x19F JUMPI PUSH0 DUP1 REVERT JUMPDEST POP JUMP JUMPDEST PUSH0 DUP2 CALLDATALOAD SWAP1 POP PUSH2 0x1B0 DUP2 PUSH2 0x18C JUMP JUMPDEST SWAP3 SWAP2 POP POP JUMP JUMPDEST PUSH0 DUP1 REVERT JUMPDEST PUSH0 DUP1 REVERT JUMPDEST PUSH0 DUP1 REVERT JUMPDEST PUSH0 DUP1 DUP4 PUSH1 0x1F DUP5 ADD SLT PUSH2 0x1D7 JUMPI PUSH2 0x1D6 PUSH2 0x1B6 JUMP JUMPDEST JUMPDEST DUP3 CALLDATALOAD SWAP1 POP PUSH8 0xFFFFFFFFFFFFFFFF DUP2 GT ISZERO PUSH2 0x1F4 JUMPI PUSH2 0x1F3 PUSH2 0x1BA JUMP JUMPDEST JUMPDEST PUSH1 0x20 DUP4 ADD SWAP2 POP DUP4 PUSH1 0x1 DUP3 MUL DUP4 ADD GT ISZERO PUSH2 0x210 JUMPI PUSH2 0x20F PUSH2 0x1BE JUMP JUMPDEST JUMPDEST SWAP3 POP SWAP3 SWAP1 POP JUMP JUMPDEST PUSH0 DUP1 PUSH0 PUSH1 0x40 DUP5 DUP7 SUB SLT ISZERO PUSH2 0x22E JUMPI PUSH2 0x22D PUSH2 0x154 JUMP JUMPDEST JUMPDEST PUSH0 PUSH2 0x23B DUP7 DUP3 DUP8 ADD PUSH2 0x1A2 JUMP JUMPDEST SWAP4 POP POP PUSH1 0x20 DUP5 ADD CALLDATALOAD PUSH8 0xFFFFFFFFFFFFFFFF DUP2 GT ISZERO PUSH2 0x25C JUMPI PUSH2 0x25B PUSH2 0x158 JUMP JUMPDEST JUMPDEST PUSH2 0x268 DUP7 DUP3 DUP8 ADD PUSH2 0x1C2 JUMP JUMPDEST SWAP3 POP SWAP3 POP POP SWAP3 POP SWAP3 POP SWAP3 JUMP JUMPDEST PUSH0 DUP3 DUP3 MSTORE PUSH1 0x20 DUP3 ADD SWAP1 POP SWAP3 SWAP2 POP POP JUMP JUMPDEST PUSH32 0x49276D2061206C6F67206576656E740000000000000000000000000000000000 PUSH0 DUP3 ADD MSTORE POP JUMP JUMPDEST PUSH0 PUSH2 0x2B8 PUSH1 0xF DUP4 PUSH2 0x274 JUMP JUMPDEST SWAP2 POP PUSH2 0x2C3 DUP3 PUSH2 0x284 JUMP JUMPDEST PUSH1 0x20 DUP3 ADD SWAP1 POP SWAP2 SWAP1 POP JUMP JUMPDEST PUSH0 DUP2 SWAP1 POP SWAP2 SWAP1 POP JUMP JUMPDEST PUSH0 DUP2 SWAP1 POP SWAP2 SWAP1 POP JUMP JUMPDEST PUSH0 DUP2 SWAP1 POP SWAP2 SWAP1 POP JUMP JUMPDEST PUSH0 PUSH2 0x303 PUSH2 0x2FE PUSH2 0x2F9 DUP5 PUSH2 0x2CE JUMP JUMPDEST PUSH2 0x2E0 JUMP JUMPDEST PUSH2 0x2D7 JUMP JUMPDEST SWAP1 POP SWAP2 SWAP1 POP JUMP JUMPDEST PUSH2 0x313 DUP2 PUSH2 0x2E9 JUMP JUMPDEST DUP3 MSTORE POP POP JUMP JUMPDEST PUSH0 PUSH1 0x40 DUP3 ADD SWAP1 POP DUP2 DUP2 SUB PUSH0 DUP4 ADD MSTORE PUSH2 0x330 DUP2 PUSH2 0x2AC JUMP JUMPDEST SWAP1 POP PUSH2 0x33F PUSH1 0x20 DUP4 ADD DUP5 PUSH2 0x30A JUMP JUMPDEST SWAP3 SWAP2 POP POP JUMP JUMPDEST PUSH0 DUP2 SWAP1 POP SWAP2 SWAP1 POP JUMP JUMPDEST PUSH0 PUSH2 0x368 PUSH2 0x363 PUSH2 0x35E DUP5 PUSH2 0x345 JUMP JUMPDEST PUSH2 0x2E0 JUMP JUMPDEST PUSH2 0x2D7 JUMP JUMPDEST SWAP1 POP SWAP2 SWAP1 POP JUMP JUMPDEST PUSH2 0x378 DUP2 PUSH2 0x34E JUMP JUMPDEST DUP3 MSTORE POP POP JUMP JUMPDEST PUSH0 PUSH1 0x20 DUP3 ADD SWAP1 POP PUSH2 0x391 PUSH0 DUP4 ADD DUP5 PUSH2 0x36F JUMP JUMPDEST SWAP3 SWAP2 POP POP JUMP JUMPDEST DUP3 DUP2 DUP4 CALLDATACOPY PUSH0 DUP4 DUP4 ADD MSTORE POP POP POP JUMP JUMPDEST PUSH0 PUSH1 0x1F NOT PUSH1 0x1F DUP4 ADD AND SWAP1 POP SWAP2 SWAP1 POP JUMP JUMPDEST PUSH0 PUSH2 0x3C0 DUP4 DUP6 PUSH2 0x274 JUMP JUMPDEST SWAP4 POP PUSH2 0x3CD DUP4 DUP6 DUP5 PUSH2 0x397 JUMP JUMPDEST PUSH2 0x3D6 DUP4 PUSH2 0x3A5 JUMP JUMPDEST DUP5 ADD SWAP1 POP SWAP4 SWAP3 POP POP POP JUMP JUMPDEST PUSH0 PUSH1 0x20 DUP3 ADD SWAP1 POP DUP2 DUP2 SUB PUSH0 DUP4 ADD MSTORE PUSH2 0x3FA DUP2 DUP5 DUP7 PUSH2 0x3B5 JUMP JUMPDEST SWAP1 POP SWAP4 SWAP3 POP POP POP JUMP INVALID LOG2 PUSH5 0x6970667358 0x22 SLT KECCAK256 DIV 0xCF KECCAK256 0xB1 PUSH12 0x1FDDBDD067BEB6A5E9875F85 0xF9 0xE3 BYTE CALLER PUSH6 0xC6879B69554C 0x2C RETURN PUSH15 0xBD64736F6C634300081A0033000000 "
				},
				"gasEstimates": {
					"creation": {
						"codeDepositCost": "216200",
						"executionCost": "255",
						"totalCost": "216455"
					},
					"external": {
						"example()": "infinite",
						"sendMessage(address,string)": "infinite"
					}
				},
				"methodIdentifiers": {
					"example()": "54353f2f",
					"sendMessage(address,string)": "de6f24bb"
				}
			},
			"storageLayout": {
				"storage": [],
				"types": null
			},
			"userdoc": {
				"kind": "user",
				"methods": {},
				"version": 1
			}
		}
	}
}