{
	"Call.sol": {
		"TestCall": {
			"abi": [
				{
					"anonymous": false,
					"inputs": [
						{
							"indexed": false,
							"internalType": "string",
							"name": "message",
							"type": "string"
						}
					],
					"name": "Log",
					"type": "event"
				},
				{
					"stateMutability": "payable",
					"type": "fallback"
				},
				{
					"inputs": [
						{
							"internalType": "string",
							"name": "_message",
							"type": "string"
						},
						{
							"internalType": "uint256",
							"name": "_x",
							"type": "uint256"
						}
					],
					"name": "foo",
					"outputs": [
						{
							"internalType": "bool",
							"name": "",
							"type": "bool"
						},
						{
							"internalType": "uint256",
							"name": "",
							"type": "uint256"
						}
					],
					"stateMutability": "payable",
					"type": "function"
				},
				{
					"inputs": [],
					"name": "message",
					"outputs": [
						{
							"internalType": "string",
							"name": "",
							"type": "string"
						}
					],
					"stateMutability": "view",
					"type": "function"
				},
				{
					"inputs": [],
					"name": "x",
					"outputs": [
						{
							"internalType": "uint256",
							"name": "",
							"type": "uint256"
						}
					],
					"stateMutability": "view",
					"type": "function"
				}
			],
			"devdoc": {
				"kind": "dev",
				"methods": {},
				"version": 1
			},
			"evm": {
				"assembly": "    /* \"Call.sol\":57:444  contract TestCall {... */\n  mstore(0x40, 0x80)\n  callvalue\n  dup1\n  iszero\n  tag_1\n  jumpi\n  0x00\n  dup1\n  revert\ntag_1:\n  pop\n  dataSize(sub_0)\n  dup1\n  dataOffset(sub_0)\n  0x00\n  codecopy\n  0x00\n  return\nstop\n\nsub_0: assembly {\n        /* \"Call.sol\":57:444  contract TestCall {... */\n      mstore(0x40, 0x80)\n      jumpi(tag_1, lt(calldatasize, 0x04))\n      shr(0xe0, calldataload(0x00))\n      dup1\n      0x0c55699c\n      eq\n      tag_3\n      jumpi\n      dup1\n      0x24ccab8f\n      eq\n      tag_4\n      jumpi\n      dup1\n      0xe21f37ce\n      eq\n      tag_5\n      jumpi\n      jump(tag_2)\n    tag_1:\n    tag_2:\n        /* \"Call.sol\":206:232  Log(\"fallback was called\") */\n      0xcf34ef537ac33ee1ac626ca1587a0a7e8e51561e5514f8cb36afa1c5102b3bab\n      mload(0x40)\n      tag_8\n      swap1\n      tag_9\n      jump\t// in\n    tag_8:\n      mload(0x40)\n      dup1\n      swap2\n      sub\n      swap1\n      log1\n        /* \"Call.sol\":57:444  contract TestCall {... */\n      stop\n        /* \"Call.sol\":108:124  uint256 public x */\n    tag_3:\n      callvalue\n      dup1\n      iszero\n      tag_10\n      jumpi\n      0x00\n      dup1\n      revert\n    tag_10:\n      pop\n      tag_11\n      tag_12\n      jump\t// in\n    tag_11:\n      mload(0x40)\n      tag_13\n      swap2\n      swap1\n      tag_14\n      jump\t// in\n    tag_13:\n      mload(0x40)\n      dup1\n      swap2\n      sub\n      swap1\n      return\n        /* \"Call.sol\":245:442  function foo(string memory _message, uint256 _x)... */\n    tag_4:\n      tag_15\n      0x04\n      dup1\n      calldatasize\n      sub\n      dup2\n      add\n      swap1\n      tag_16\n      swap2\n      swap1\n      tag_17\n      jump\t// in\n    tag_16:\n      tag_18\n      jump\t// in\n    tag_15:\n      mload(0x40)\n      tag_19\n      swap3\n      swap2\n      swap1\n      tag_20\n      jump\t// in\n    tag_19:\n      mload(0x40)\n      dup1\n      swap2\n      sub\n      swap1\n      return\n        /* \"Call.sol\":81:102  string public message */\n    tag_5:\n      callvalue\n      dup1\n      iszero\n      tag_21\n      jumpi\n      0x00\n      dup1\n      revert\n    tag_21:\n      pop\n      tag_22\n      tag_23\n      jump\t// in\n    tag_22:\n      mload(0x40)\n      tag_24\n      swap2\n      swap1\n      tag_25\n      jump\t// in\n    tag_24:\n      mload(0x40)\n      dup1\n      swap2\n      sub\n      swap1\n      return\n        /* \"Call.sol\":108:124  uint256 public x */\n    tag_12:\n      sload(0x01)\n      dup2\n      jump\t// out\n        /* \"Call.sol\":245:442  function foo(string memory _message, uint256 _x)... */\n    tag_18:\n        /* \"Call.sol\":344:348  bool */\n      0x00\n        /* \"Call.sol\":350:357  uint256 */\n      dup1\n        /* \"Call.sol\":383:391  _message */\n      dup4\n        /* \"Call.sol\":373:380  message */\n      0x00\n        /* \"Call.sol\":373:391  message = _message */\n      swap1\n      dup2\n      tag_27\n      swap2\n      swap1\n      tag_28\n      jump\t// in\n    tag_27:\n      pop\n        /* \"Call.sol\":405:407  _x */\n      dup3\n        /* \"Call.sol\":401:402  x */\n      0x01\n        /* \"Call.sol\":401:407  x = _x */\n      dup2\n      swap1\n      sstore\n      pop\n        /* \"Call.sol\":425:429  true */\n      0x01\n        /* \"Call.sol\":431:434  999 */\n      0x03e7\n        /* \"Call.sol\":417:435  return (true, 999) */\n      swap2\n      pop\n      swap2\n      pop\n        /* \"Call.sol\":245:442  function foo(string memory _message, uint256 _x)... */\n      swap3\n      pop\n      swap3\n      swap1\n      pop\n      jump\t// out\n        /* \"Call.sol\":81:102  string public message */\n    tag_23:\n      0x00\n      dup1\n      sload\n      tag_29\n      swap1\n      tag_30\n      jump\t// in\n    tag_29:\n      dup1\n      0x1f\n      add\n      0x20\n      dup1\n      swap2\n      div\n      mul\n      0x20\n      add\n      mload(0x40)\n      swap1\n      dup2\n      add\n      0x40\n      mstore\n      dup1\n      swap3\n      swap2\n      swap1\n      dup2\n      dup2\n      mstore\n      0x20\n      add\n      dup3\n      dup1\n      sload\n      tag_31\n      swap1\n      tag_30\n      jump\t// in\n    tag_31:\n      dup1\n      iszero\n      tag_32\n      jumpi\n      dup1\n      0x1f\n      lt\n      tag_33\n      jumpi\n      0x0100\n      dup1\n      dup4\n      sload\n      div\n      mul\n      dup4\n      mstore\n      swap2\n      0x20\n      add\n      swap2\n      jump(tag_32)\n    tag_33:\n      dup3\n      add\n      swap2\n      swap1\n      0x00\n      mstore\n      keccak256(0x00, 0x20)\n      swap1\n    tag_34:\n      dup2\n      sload\n      dup2\n      mstore\n      swap1\n      0x01\n      add\n      swap1\n      0x20\n      add\n      dup1\n      dup4\n      gt\n      tag_34\n      jumpi\n      dup3\n      swap1\n      sub\n      0x1f\n      and\n      dup3\n      add\n      swap2\n    tag_32:\n      pop\n      pop\n      pop\n      pop\n      pop\n      dup2\n      jump\t// out\n        /* \"#utility.yul\":7:176   */\n    tag_35:\n        /* \"#utility.yul\":91:102   */\n      0x00\n        /* \"#utility.yul\":125:131   */\n      dup3\n        /* \"#utility.yul\":120:123   */\n      dup3\n        /* \"#utility.yul\":113:132   */\n      mstore\n        /* \"#utility.yul\":165:169   */\n      0x20\n        /* \"#utility.yul\":160:163   */\n      dup3\n        /* \"#utility.yul\":156:170   */\n      add\n        /* \"#utility.yul\":141:170   */\n      swap1\n      pop\n        /* \"#utility.yul\":7:176   */\n      swap3\n      swap2\n      pop\n      pop\n      jump\t// out\n        /* \"#utility.yul\":182:351   */\n    tag_36:\n        /* \"#utility.yul\":322:343   */\n      0x66616c6c6261636b207761732063616c6c656400000000000000000000000000\n        /* \"#utility.yul\":318:319   */\n      0x00\n        /* \"#utility.yul\":310:316   */\n      dup3\n        /* \"#utility.yul\":306:320   */\n      add\n        /* \"#utility.yul\":299:344   */\n      mstore\n        /* \"#utility.yul\":182:351   */\n      pop\n      jump\t// out\n        /* \"#utility.yul\":357:723   */\n    tag_37:\n        /* \"#utility.yul\":499:502   */\n      0x00\n        /* \"#utility.yul\":520:587   */\n      tag_80\n        /* \"#utility.yul\":584:586   */\n      0x13\n        /* \"#utility.yul\":579:582   */\n      dup4\n        /* \"#utility.yul\":520:587   */\n      tag_35\n      jump\t// in\n    tag_80:\n        /* \"#utility.yul\":513:587   */\n      swap2\n      pop\n        /* \"#utility.yul\":596:689   */\n      tag_81\n        /* \"#utility.yul\":685:688   */\n      dup3\n        /* \"#utility.yul\":596:689   */\n      tag_36\n      jump\t// in\n    tag_81:\n        /* \"#utility.yul\":714:716   */\n      0x20\n        /* \"#utility.yul\":709:712   */\n      dup3\n        /* \"#utility.yul\":705:717   */\n      add\n        /* \"#utility.yul\":698:717   */\n      swap1\n      pop\n        /* \"#utility.yul\":357:723   */\n      swap2\n      swap1\n      pop\n      jump\t// out\n        /* \"#utility.yul\":729:1148   */\n    tag_9:\n        /* \"#utility.yul\":895:899   */\n      0x00\n        /* \"#utility.yul\":933:935   */\n      0x20\n        /* \"#utility.yul\":922:931   */\n      dup3\n        /* \"#utility.yul\":918:936   */\n      add\n        /* \"#utility.yul\":910:936   */\n      swap1\n      pop\n        /* \"#utility.yul\":982:991   */\n      dup2\n        /* \"#utility.yul\":976:980   */\n      dup2\n        /* \"#utility.yul\":972:992   */\n      sub\n        /* \"#utility.yul\":968:969   */\n      0x00\n        /* \"#utility.yul\":957:966   */\n      dup4\n        /* \"#utility.yul\":953:970   */\n      add\n        /* \"#utility.yul\":946:993   */\n      mstore\n        /* \"#utility.yul\":1010:1141   */\n      tag_83\n        /* \"#utility.yul\":1136:1140   */\n      dup2\n        /* \"#utility.yul\":1010:1141   */\n      tag_37\n      jump\t// in\n    tag_83:\n        /* \"#utility.yul\":1002:1141   */\n      swap1\n      pop\n        /* \"#utility.yul\":729:1148   */\n      swap2\n      swap1\n      pop\n      jump\t// out\n        /* \"#utility.yul\":1154:1231   */\n    tag_38:\n        /* \"#utility.yul\":1191:1198   */\n      0x00\n        /* \"#utility.yul\":1220:1225   */\n      dup2\n        /* \"#utility.yul\":1209:1225   */\n      swap1\n      pop\n        /* \"#utility.yul\":1154:1231   */\n      swap2\n      swap1\n      pop\n      jump\t// out\n        /* \"#utility.yul\":1237:1355   */\n    tag_39:\n        /* \"#utility.yul\":1324:1348   */\n      tag_86\n        /* \"#utility.yul\":1342:1347   */\n      dup2\n        /* \"#utility.yul\":1324:1348   */\n      tag_38\n      jump\t// in\n    tag_86:\n        /* \"#utility.yul\":1319:1322   */\n      dup3\n        /* \"#utility.yul\":1312:1349   */\n      mstore\n        /* \"#utility.yul\":1237:1355   */\n      pop\n      pop\n      jump\t// out\n        /* \"#utility.yul\":1361:1583   */\n    tag_14:\n        /* \"#utility.yul\":1454:1458   */\n      0x00\n        /* \"#utility.yul\":1492:1494   */\n      0x20\n        /* \"#utility.yul\":1481:1490   */\n      dup3\n        /* \"#utility.yul\":1477:1495   */\n      add\n        /* \"#utility.yul\":1469:1495   */\n      swap1\n      pop\n        /* \"#utility.yul\":1505:1576   */\n      tag_88\n        /* \"#utility.yul\":1573:1574   */\n      0x00\n        /* \"#utility.yul\":1562:1571   */\n      dup4\n        /* \"#utility.yul\":1558:1575   */\n      add\n        /* \"#utility.yul\":1549:1555   */\n      dup5\n        /* \"#utility.yul\":1505:1576   */\n      tag_39\n      jump\t// in\n    tag_88:\n        /* \"#utility.yul\":1361:1583   */\n      swap3\n      swap2\n      pop\n      pop\n      jump\t// out\n        /* \"#utility.yul\":1589:1664   */\n    tag_40:\n        /* \"#utility.yul\":1622:1628   */\n      0x00\n        /* \"#utility.yul\":1655:1657   */\n      0x40\n        /* \"#utility.yul\":1649:1658   */\n      mload\n        /* \"#utility.yul\":1639:1658   */\n      swap1\n      pop\n        /* \"#utility.yul\":1589:1664   */\n      swap1\n      jump\t// out\n        /* \"#utility.yul\":1670:1787   */\n    tag_41:\n        /* \"#utility.yul\":1779:1780   */\n      0x00\n        /* \"#utility.yul\":1776:1777   */\n      dup1\n        /* \"#utility.yul\":1769:1781   */\n      revert\n        /* \"#utility.yul\":1793:1910   */\n    tag_42:\n        /* \"#utility.yul\":1902:1903   */\n      0x00\n        /* \"#utility.yul\":1899:1900   */\n      dup1\n        /* \"#utility.yul\":1892:1904   */\n      revert\n        /* \"#utility.yul\":1916:2033   */\n    tag_43:\n        /* \"#utility.yul\":2025:2026   */\n      0x00\n        /* \"#utility.yul\":2022:2023   */\n      dup1\n        /* \"#utility.yul\":2015:2027   */\n      revert\n        /* \"#utility.yul\":2039:2156   */\n    tag_44:\n        /* \"#utility.yul\":2148:2149   */\n      0x00\n        /* \"#utility.yul\":2145:2146   */\n      dup1\n        /* \"#utility.yul\":2138:2150   */\n      revert\n        /* \"#utility.yul\":2162:2264   */\n    tag_45:\n        /* \"#utility.yul\":2203:2209   */\n      0x00\n        /* \"#utility.yul\":2254:2256   */\n      0x1f\n        /* \"#utility.yul\":2250:2257   */\n      not\n        /* \"#utility.yul\":2245:2247   */\n      0x1f\n        /* \"#utility.yul\":2238:2243   */\n      dup4\n        /* \"#utility.yul\":2234:2248   */\n      add\n        /* \"#utility.yul\":2230:2258   */\n      and\n        /* \"#utility.yul\":2220:2258   */\n      swap1\n      pop\n        /* \"#utility.yul\":2162:2264   */\n      swap2\n      swap1\n      pop\n      jump\t// out\n        /* \"#utility.yul\":2270:2450   */\n    tag_46:\n        /* \"#utility.yul\":2318:2395   */\n      0x4e487b7100000000000000000000000000000000000000000000000000000000\n        /* \"#utility.yul\":2315:2316   */\n      0x00\n        /* \"#utility.yul\":2308:2396   */\n      mstore\n        /* \"#utility.yul\":2415:2419   */\n      0x41\n        /* \"#utility.yul\":2412:2413   */\n      0x04\n        /* \"#utility.yul\":2405:2420   */\n      mstore\n        /* \"#utility.yul\":2439:2443   */\n      0x24\n        /* \"#utility.yul\":2436:2437   */\n      0x00\n        /* \"#utility.yul\":2429:2444   */\n      revert\n        /* \"#utility.yul\":2456:2737   */\n    tag_47:\n        /* \"#utility.yul\":2539:2566   */\n      tag_97\n        /* \"#utility.yul\":2561:2565   */\n      dup3\n        /* \"#utility.yul\":2539:2566   */\n      tag_45\n      jump\t// in\n    tag_97:\n        /* \"#utility.yul\":2531:2537   */\n      dup2\n        /* \"#utility.yul\":2527:2567   */\n      add\n        /* \"#utility.yul\":2669:2675   */\n      dup2\n        /* \"#utility.yul\":2657:2667   */\n      dup2\n        /* \"#utility.yul\":2654:2676   */\n      lt\n        /* \"#utility.yul\":2633:2651   */\n      0xffffffffffffffff\n        /* \"#utility.yul\":2621:2631   */\n      dup3\n        /* \"#utility.yul\":2618:2652   */\n      gt\n        /* \"#utility.yul\":2615:2677   */\n      or\n        /* \"#utility.yul\":2612:2700   */\n      iszero\n      tag_98\n      jumpi\n        /* \"#utility.yul\":2680:2698   */\n      tag_99\n      tag_46\n      jump\t// in\n    tag_99:\n        /* \"#utility.yul\":2612:2700   */\n    tag_98:\n        /* \"#utility.yul\":2720:2730   */\n      dup1\n        /* \"#utility.yul\":2716:2718   */\n      0x40\n        /* \"#utility.yul\":2709:2731   */\n      mstore\n        /* \"#utility.yul\":2499:2737   */\n      pop\n        /* \"#utility.yul\":2456:2737   */\n      pop\n      pop\n      jump\t// out\n        /* \"#utility.yul\":2743:2872   */\n    tag_48:\n        /* \"#utility.yul\":2777:2783   */\n      0x00\n        /* \"#utility.yul\":2804:2824   */\n      tag_101\n      tag_40\n      jump\t// in\n    tag_101:\n        /* \"#utility.yul\":2794:2824   */\n      swap1\n      pop\n        /* \"#utility.yul\":2833:2866   */\n      tag_102\n        /* \"#utility.yul\":2861:2865   */\n      dup3\n        /* \"#utility.yul\":2853:2859   */\n      dup3\n        /* \"#utility.yul\":2833:2866   */\n      tag_47\n      jump\t// in\n    tag_102:\n        /* \"#utility.yul\":2743:2872   */\n      swap2\n      swap1\n      pop\n      jump\t// out\n        /* \"#utility.yul\":2878:3186   */\n    tag_49:\n        /* \"#utility.yul\":2940:2944   */\n      0x00\n        /* \"#utility.yul\":3030:3048   */\n      0xffffffffffffffff\n        /* \"#utility.yul\":3022:3028   */\n      dup3\n        /* \"#utility.yul\":3019:3049   */\n      gt\n        /* \"#utility.yul\":3016:3072   */\n      iszero\n      tag_104\n      jumpi\n        /* \"#utility.yul\":3052:3070   */\n      tag_105\n      tag_46\n      jump\t// in\n    tag_105:\n        /* \"#utility.yul\":3016:3072   */\n    tag_104:\n        /* \"#utility.yul\":3090:3119   */\n      tag_106\n        /* \"#utility.yul\":3112:3118   */\n      dup3\n        /* \"#utility.yul\":3090:3119   */\n      tag_45\n      jump\t// in\n    tag_106:\n        /* \"#utility.yul\":3082:3119   */\n      swap1\n      pop\n        /* \"#utility.yul\":3174:3178   */\n      0x20\n        /* \"#utility.yul\":3168:3172   */\n      dup2\n        /* \"#utility.yul\":3164:3179   */\n      add\n        /* \"#utility.yul\":3156:3179   */\n      swap1\n      pop\n        /* \"#utility.yul\":2878:3186   */\n      swap2\n      swap1\n      pop\n      jump\t// out\n        /* \"#utility.yul\":3192:3340   */\n    tag_50:\n        /* \"#utility.yul\":3290:3296   */\n      dup3\n        /* \"#utility.yul\":3285:3288   */\n      dup2\n        /* \"#utility.yul\":3280:3283   */\n      dup4\n        /* \"#utility.yul\":3267:3297   */\n      calldatacopy\n        /* \"#utility.yul\":3331:3332   */\n      0x00\n        /* \"#utility.yul\":3322:3328   */\n      dup4\n        /* \"#utility.yul\":3317:3320   */\n      dup4\n        /* \"#utility.yul\":3313:3329   */\n      add\n        /* \"#utility.yul\":3306:3333   */\n      mstore\n        /* \"#utility.yul\":3192:3340   */\n      pop\n      pop\n      pop\n      jump\t// out\n        /* \"#utility.yul\":3346:3771   */\n    tag_51:\n        /* \"#utility.yul\":3424:3429   */\n      0x00\n        /* \"#utility.yul\":3449:3515   */\n      tag_109\n        /* \"#utility.yul\":3465:3514   */\n      tag_110\n        /* \"#utility.yul\":3507:3513   */\n      dup5\n        /* \"#utility.yul\":3465:3514   */\n      tag_49\n      jump\t// in\n    tag_110:\n        /* \"#utility.yul\":3449:3515   */\n      tag_48\n      jump\t// in\n    tag_109:\n        /* \"#utility.yul\":3440:3515   */\n      swap1\n      pop\n        /* \"#utility.yul\":3538:3544   */\n      dup3\n        /* \"#utility.yul\":3531:3536   */\n      dup2\n        /* \"#utility.yul\":3524:3545   */\n      mstore\n        /* \"#utility.yul\":3576:3580   */\n      0x20\n        /* \"#utility.yul\":3569:3574   */\n      dup2\n        /* \"#utility.yul\":3565:3581   */\n      add\n        /* \"#utility.yul\":3614:3617   */\n      dup5\n        /* \"#utility.yul\":3605:3611   */\n      dup5\n        /* \"#utility.yul\":3600:3603   */\n      dup5\n        /* \"#utility.yul\":3596:3612   */\n      add\n        /* \"#utility.yul\":3593:3618   */\n      gt\n        /* \"#utility.yul\":3590:3702   */\n      iszero\n      tag_111\n      jumpi\n        /* \"#utility.yul\":3621:3700   */\n      tag_112\n      tag_44\n      jump\t// in\n    tag_112:\n        /* \"#utility.yul\":3590:3702   */\n    tag_111:\n        /* \"#utility.yul\":3711:3765   */\n      tag_113\n        /* \"#utility.yul\":3758:3764   */\n      dup5\n        /* \"#utility.yul\":3753:3756   */\n      dup3\n        /* \"#utility.yul\":3748:3751   */\n      dup6\n        /* \"#utility.yul\":3711:3765   */\n      tag_50\n      jump\t// in\n    tag_113:\n        /* \"#utility.yul\":3430:3771   */\n      pop\n        /* \"#utility.yul\":3346:3771   */\n      swap4\n      swap3\n      pop\n      pop\n      pop\n      jump\t// out\n        /* \"#utility.yul\":3791:4131   */\n    tag_52:\n        /* \"#utility.yul\":3847:3852   */\n      0x00\n        /* \"#utility.yul\":3896:3899   */\n      dup3\n        /* \"#utility.yul\":3889:3893   */\n      0x1f\n        /* \"#utility.yul\":3881:3887   */\n      dup4\n        /* \"#utility.yul\":3877:3894   */\n      add\n        /* \"#utility.yul\":3873:3900   */\n      slt\n        /* \"#utility.yul\":3863:3985   */\n      tag_115\n      jumpi\n        /* \"#utility.yul\":3904:3983   */\n      tag_116\n      tag_43\n      jump\t// in\n    tag_116:\n        /* \"#utility.yul\":3863:3985   */\n    tag_115:\n        /* \"#utility.yul\":4021:4027   */\n      dup2\n        /* \"#utility.yul\":4008:4028   */\n      calldataload\n        /* \"#utility.yul\":4046:4125   */\n      tag_117\n        /* \"#utility.yul\":4121:4124   */\n      dup5\n        /* \"#utility.yul\":4113:4119   */\n      dup3\n        /* \"#utility.yul\":4106:4110   */\n      0x20\n        /* \"#utility.yul\":4098:4104   */\n      dup7\n        /* \"#utility.yul\":4094:4111   */\n      add\n        /* \"#utility.yul\":4046:4125   */\n      tag_51\n      jump\t// in\n    tag_117:\n        /* \"#utility.yul\":4037:4125   */\n      swap2\n      pop\n        /* \"#utility.yul\":3853:4131   */\n      pop\n        /* \"#utility.yul\":3791:4131   */\n      swap3\n      swap2\n      pop\n      pop\n      jump\t// out\n        /* \"#utility.yul\":4137:4259   */\n    tag_53:\n        /* \"#utility.yul\":4210:4234   */\n      tag_119\n        /* \"#utility.yul\":4228:4233   */\n      dup2\n        /* \"#utility.yul\":4210:4234   */\n      tag_38\n      jump\t// in\n    tag_119:\n        /* \"#utility.yul\":4203:4208   */\n      dup2\n        /* \"#utility.yul\":4200:4235   */\n      eq\n        /* \"#utility.yul\":4190:4253   */\n      tag_120\n      jumpi\n        /* \"#utility.yul\":4249:4250   */\n      0x00\n        /* \"#utility.yul\":4246:4247   */\n      dup1\n        /* \"#utility.yul\":4239:4251   */\n      revert\n        /* \"#utility.yul\":4190:4253   */\n    tag_120:\n        /* \"#utility.yul\":4137:4259   */\n      pop\n      jump\t// out\n        /* \"#utility.yul\":4265:4404   */\n    tag_54:\n        /* \"#utility.yul\":4311:4316   */\n      0x00\n        /* \"#utility.yul\":4349:4355   */\n      dup2\n        /* \"#utility.yul\":4336:4356   */\n      calldataload\n        /* \"#utility.yul\":4327:4356   */\n      swap1\n      pop\n        /* \"#utility.yul\":4365:4398   */\n      tag_122\n        /* \"#utility.yul\":4392:4397   */\n      dup2\n        /* \"#utility.yul\":4365:4398   */\n      tag_53\n      jump\t// in\n    tag_122:\n        /* \"#utility.yul\":4265:4404   */\n      swap3\n      swap2\n      pop\n      pop\n      jump\t// out\n        /* \"#utility.yul\":4410:5064   */\n    tag_17:\n        /* \"#utility.yul\":4488:4494   */\n      0x00\n        /* \"#utility.yul\":4496:4502   */\n      dup1\n        /* \"#utility.yul\":4545:4547   */\n      0x40\n        /* \"#utility.yul\":4533:4542   */\n      dup4\n        /* \"#utility.yul\":4524:4531   */\n      dup6\n        /* \"#utility.yul\":4520:4543   */\n      sub\n        /* \"#utility.yul\":4516:4548   */\n      slt\n        /* \"#utility.yul\":4513:4632   */\n      iszero\n      tag_124\n      jumpi\n        /* \"#utility.yul\":4551:4630   */\n      tag_125\n      tag_41\n      jump\t// in\n    tag_125:\n        /* \"#utility.yul\":4513:4632   */\n    tag_124:\n        /* \"#utility.yul\":4699:4700   */\n      0x00\n        /* \"#utility.yul\":4688:4697   */\n      dup4\n        /* \"#utility.yul\":4684:4701   */\n      add\n        /* \"#utility.yul\":4671:4702   */\n      calldataload\n        /* \"#utility.yul\":4729:4747   */\n      0xffffffffffffffff\n        /* \"#utility.yul\":4721:4727   */\n      dup2\n        /* \"#utility.yul\":4718:4748   */\n      gt\n        /* \"#utility.yul\":4715:4832   */\n      iszero\n      tag_126\n      jumpi\n        /* \"#utility.yul\":4751:4830   */\n      tag_127\n      tag_42\n      jump\t// in\n    tag_127:\n        /* \"#utility.yul\":4715:4832   */\n    tag_126:\n        /* \"#utility.yul\":4856:4919   */\n      tag_128\n        /* \"#utility.yul\":4911:4918   */\n      dup6\n        /* \"#utility.yul\":4902:4908   */\n      dup3\n        /* \"#utility.yul\":4891:4900   */\n      dup7\n        /* \"#utility.yul\":4887:4909   */\n      add\n        /* \"#utility.yul\":4856:4919   */\n      tag_52\n      jump\t// in\n    tag_128:\n        /* \"#utility.yul\":4846:4919   */\n      swap3\n      pop\n        /* \"#utility.yul\":4642:4929   */\n      pop\n        /* \"#utility.yul\":4968:4970   */\n      0x20\n        /* \"#utility.yul\":4994:5047   */\n      tag_129\n        /* \"#utility.yul\":5039:5046   */\n      dup6\n        /* \"#utility.yul\":5030:5036   */\n      dup3\n        /* \"#utility.yul\":5019:5028   */\n      dup7\n        /* \"#utility.yul\":5015:5037   */\n      add\n        /* \"#utility.yul\":4994:5047   */\n      tag_54\n      jump\t// in\n    tag_129:\n        /* \"#utility.yul\":4984:5047   */\n      swap2\n      pop\n        /* \"#utility.yul\":4939:5057   */\n      pop\n        /* \"#utility.yul\":4410:5064   */\n      swap3\n      pop\n      swap3\n      swap1\n      pop\n      jump\t// out\n        /* \"#utility.yul\":5070:5160   */\n    tag_55:\n        /* \"#utility.yul\":5104:5111   */\n      0x00\n        /* \"#utility.yul\":5147:5152   */\n      dup2\n        /* \"#utility.yul\":5140:5153   */\n      iszero\n        /* \"#utility.yul\":5133:5154   */\n      iszero\n        /* \"#utility.yul\":5122:5154   */\n      swap1\n      pop\n        /* \"#utility.yul\":5070:5160   */\n      swap2\n      swap1\n      pop\n      jump\t// out\n        /* \"#utility.yul\":5166:5275   */\n    tag_56:\n        /* \"#utility.yul\":5247:5268   */\n      tag_132\n        /* \"#utility.yul\":5262:5267   */\n      dup2\n        /* \"#utility.yul\":5247:5268   */\n      tag_55\n      jump\t// in\n    tag_132:\n        /* \"#utility.yul\":5242:5245   */\n      dup3\n        /* \"#utility.yul\":5235:5269   */\n      mstore\n        /* \"#utility.yul\":5166:5275   */\n      pop\n      pop\n      jump\t// out\n        /* \"#utility.yul\":5281:5601   */\n    tag_20:\n        /* \"#utility.yul\":5396:5400   */\n      0x00\n        /* \"#utility.yul\":5434:5436   */\n      0x40\n        /* \"#utility.yul\":5423:5432   */\n      dup3\n        /* \"#utility.yul\":5419:5437   */\n      add\n        /* \"#utility.yul\":5411:5437   */\n      swap1\n      pop\n        /* \"#utility.yul\":5447:5512   */\n      tag_134\n        /* \"#utility.yul\":5509:5510   */\n      0x00\n        /* \"#utility.yul\":5498:5507   */\n      dup4\n        /* \"#utility.yul\":5494:5511   */\n      add\n        /* \"#utility.yul\":5485:5491   */\n      dup6\n        /* \"#utility.yul\":5447:5512   */\n      tag_56\n      jump\t// in\n    tag_134:\n        /* \"#utility.yul\":5522:5594   */\n      tag_135\n        /* \"#utility.yul\":5590:5592   */\n      0x20\n        /* \"#utility.yul\":5579:5588   */\n      dup4\n        /* \"#utility.yul\":5575:5593   */\n      add\n        /* \"#utility.yul\":5566:5572   */\n      dup5\n        /* \"#utility.yul\":5522:5594   */\n      tag_39\n      jump\t// in\n    tag_135:\n        /* \"#utility.yul\":5281:5601   */\n      swap4\n      swap3\n      pop\n      pop\n      pop\n      jump\t// out\n        /* \"#utility.yul\":5607:5706   */\n    tag_57:\n        /* \"#utility.yul\":5659:5665   */\n      0x00\n        /* \"#utility.yul\":5693:5698   */\n      dup2\n        /* \"#utility.yul\":5687:5699   */\n      mload\n        /* \"#utility.yul\":5677:5699   */\n      swap1\n      pop\n        /* \"#utility.yul\":5607:5706   */\n      swap2\n      swap1\n      pop\n      jump\t// out\n        /* \"#utility.yul\":5712:5851   */\n    tag_58:\n        /* \"#utility.yul\":5801:5807   */\n      dup3\n        /* \"#utility.yul\":5796:5799   */\n      dup2\n        /* \"#utility.yul\":5791:5794   */\n      dup4\n        /* \"#utility.yul\":5785:5808   */\n      mcopy\n        /* \"#utility.yul\":5842:5843   */\n      0x00\n        /* \"#utility.yul\":5833:5839   */\n      dup4\n        /* \"#utility.yul\":5828:5831   */\n      dup4\n        /* \"#utility.yul\":5824:5840   */\n      add\n        /* \"#utility.yul\":5817:5844   */\n      mstore\n        /* \"#utility.yul\":5712:5851   */\n      pop\n      pop\n      pop\n      jump\t// out\n        /* \"#utility.yul\":5857:6234   */\n    tag_59:\n        /* \"#utility.yul\":5945:5948   */\n      0x00\n        /* \"#utility.yul\":5973:6012   */\n      tag_139\n        /* \"#utility.yul\":6006:6011   */\n      dup3\n        /* \"#utility.yul\":5973:6012   */\n      tag_57\n      jump\t// in\n    tag_139:\n        /* \"#utility.yul\":6028:6099   */\n      tag_140\n        /* \"#utility.yul\":6092:6098   */\n      dup2\n        /* \"#utility.yul\":6087:6090   */\n      dup6\n        /* \"#utility.yul\":6028:6099   */\n      tag_35\n      jump\t// in\n    tag_140:\n        /* \"#utility.yul\":6021:6099   */\n      swap4\n      pop\n        /* \"#utility.yul\":6108:6173   */\n      tag_141\n        /* \"#utility.yul\":6166:6172   */\n      dup2\n        /* \"#utility.yul\":6161:6164   */\n      dup6\n        /* \"#utility.yul\":6154:6158   */\n      0x20\n        /* \"#utility.yul\":6147:6152   */\n      dup7\n        /* \"#utility.yul\":6143:6159   */\n      add\n        /* \"#utility.yul\":6108:6173   */\n      tag_58\n      jump\t// in\n    tag_141:\n        /* \"#utility.yul\":6198:6227   */\n      tag_142\n        /* \"#utility.yul\":6220:6226   */\n      dup2\n        /* \"#utility.yul\":6198:6227   */\n      tag_45\n      jump\t// in\n    tag_142:\n        /* \"#utility.yul\":6193:6196   */\n      dup5\n        /* \"#utility.yul\":6189:6228   */\n      add\n        /* \"#utility.yul\":6182:6228   */\n      swap2\n      pop\n        /* \"#utility.yul\":5949:6234   */\n      pop\n        /* \"#utility.yul\":5857:6234   */\n      swap3\n      swap2\n      pop\n      pop\n      jump\t// out\n        /* \"#utility.yul\":6240:6553   */\n    tag_25:\n        /* \"#utility.yul\":6353:6357   */\n      0x00\n        /* \"#utility.yul\":6391:6393   */\n      0x20\n        /* \"#utility.yul\":6380:6389   */\n      dup3\n        /* \"#utility.yul\":6376:6394   */\n      add\n        /* \"#utility.yul\":6368:6394   */\n      swap1\n      pop\n        /* \"#utility.yul\":6440:6449   */\n      dup2\n        /* \"#utility.yul\":6434:6438   */\n      dup2\n        /* \"#utility.yul\":6430:6450   */\n      sub\n        /* \"#utility.yul\":6426:6427   */\n      0x00\n        /* \"#utility.yul\":6415:6424   */\n      dup4\n        /* \"#utility.yul\":6411:6428   */\n      add\n        /* \"#utility.yul\":6404:6451   */\n      mstore\n        /* \"#utility.yul\":6468:6546   */\n      tag_144\n        /* \"#utility.yul\":6541:6545   */\n      dup2\n        /* \"#utility.yul\":6532:6538   */\n      dup5\n        /* \"#utility.yul\":6468:6546   */\n      tag_59\n      jump\t// in\n    tag_144:\n        /* \"#utility.yul\":6460:6546   */\n      swap1\n      pop\n        /* \"#utility.yul\":6240:6553   */\n      swap3\n      swap2\n      pop\n      pop\n      jump\t// out\n        /* \"#utility.yul\":6559:6739   */\n    tag_60:\n        /* \"#utility.yul\":6607:6684   */\n      0x4e487b7100000000000000000000000000000000000000000000000000000000\n        /* \"#utility.yul\":6604:6605   */\n      0x00\n        /* \"#utility.yul\":6597:6685   */\n      mstore\n        /* \"#utility.yul\":6704:6708   */\n      0x22\n        /* \"#utility.yul\":6701:6702   */\n      0x04\n        /* \"#utility.yul\":6694:6709   */\n      mstore\n        /* \"#utility.yul\":6728:6732   */\n      0x24\n        /* \"#utility.yul\":6725:6726   */\n      0x00\n        /* \"#utility.yul\":6718:6733   */\n      revert\n        /* \"#utility.yul\":6745:7065   */\n    tag_30:\n        /* \"#utility.yul\":6789:6795   */\n      0x00\n        /* \"#utility.yul\":6826:6827   */\n      0x02\n        /* \"#utility.yul\":6820:6824   */\n      dup3\n        /* \"#utility.yul\":6816:6828   */\n      div\n        /* \"#utility.yul\":6806:6828   */\n      swap1\n      pop\n        /* \"#utility.yul\":6873:6874   */\n      0x01\n        /* \"#utility.yul\":6867:6871   */\n      dup3\n        /* \"#utility.yul\":6863:6875   */\n      and\n        /* \"#utility.yul\":6894:6912   */\n      dup1\n        /* \"#utility.yul\":6884:6965   */\n      tag_147\n      jumpi\n        /* \"#utility.yul\":6950:6954   */\n      0x7f\n        /* \"#utility.yul\":6942:6948   */\n      dup3\n        /* \"#utility.yul\":6938:6955   */\n      and\n        /* \"#utility.yul\":6928:6955   */\n      swap2\n      pop\n        /* \"#utility.yul\":6884:6965   */\n    tag_147:\n        /* \"#utility.yul\":7012:7014   */\n      0x20\n        /* \"#utility.yul\":7004:7010   */\n      dup3\n        /* \"#utility.yul\":7001:7015   */\n      lt\n        /* \"#utility.yul\":6981:6999   */\n      dup2\n        /* \"#utility.yul\":6978:7016   */\n      sub\n        /* \"#utility.yul\":6975:7059   */\n      tag_148\n      jumpi\n        /* \"#utility.yul\":7031:7049   */\n      tag_149\n      tag_60\n      jump\t// in\n    tag_149:\n        /* \"#utility.yul\":6975:7059   */\n    tag_148:\n        /* \"#utility.yul\":6796:7065   */\n      pop\n        /* \"#utility.yul\":6745:7065   */\n      swap2\n      swap1\n      pop\n      jump\t// out\n        /* \"#utility.yul\":7071:7212   */\n    tag_61:\n        /* \"#utility.yul\":7120:7124   */\n      0x00\n        /* \"#utility.yul\":7143:7146   */\n      dup2\n        /* \"#utility.yul\":7135:7146   */\n      swap1\n      pop\n        /* \"#utility.yul\":7166:7169   */\n      dup2\n        /* \"#utility.yul\":7163:7164   */\n      0x00\n        /* \"#utility.yul\":7156:7170   */\n      mstore\n        /* \"#utility.yul\":7200:7204   */\n      0x20\n        /* \"#utility.yul\":7197:7198   */\n      0x00\n        /* \"#utility.yul\":7187:7205   */\n      keccak256\n        /* \"#utility.yul\":7179:7205   */\n      swap1\n      pop\n        /* \"#utility.yul\":7071:7212   */\n      swap2\n      swap1\n      pop\n      jump\t// out\n        /* \"#utility.yul\":7218:7311   */\n    tag_62:\n        /* \"#utility.yul\":7255:7261   */\n      0x00\n        /* \"#utility.yul\":7302:7304   */\n      0x20\n        /* \"#utility.yul\":7297:7299   */\n      0x1f\n        /* \"#utility.yul\":7290:7295   */\n      dup4\n        /* \"#utility.yul\":7286:7300   */\n      add\n        /* \"#utility.yul\":7282:7305   */\n      div\n        /* \"#utility.yul\":7272:7305   */\n      swap1\n      pop\n        /* \"#utility.yul\":7218:7311   */\n      swap2\n      swap1\n      pop\n      jump\t// out\n        /* \"#utility.yul\":7317:7424   */\n    tag_63:\n        /* \"#utility.yul\":7361:7369   */\n      0x00\n        /* \"#utility.yul\":7411:7416   */\n      dup3\n        /* \"#utility.yul\":7405:7409   */\n      dup3\n        /* \"#utility.yul\":7401:7417   */\n      shl\n        /* \"#utility.yul\":7380:7417   */\n      swap1\n      pop\n        /* \"#utility.yul\":7317:7424   */\n      swap3\n      swap2\n      pop\n      pop\n      jump\t// out\n        /* \"#utility.yul\":7430:7823   */\n    tag_64:\n        /* \"#utility.yul\":7499:7505   */\n      0x00\n        /* \"#utility.yul\":7549:7550   */\n      0x08\n        /* \"#utility.yul\":7537:7547   */\n      dup4\n        /* \"#utility.yul\":7533:7551   */\n      mul\n        /* \"#utility.yul\":7572:7669   */\n      tag_154\n        /* \"#utility.yul\":7602:7668   */\n      0xffffffffffffffffffffffffffffffffffffffffffffffffffffffffffffffff\n        /* \"#utility.yul\":7591:7600   */\n      dup3\n        /* \"#utility.yul\":7572:7669   */\n      tag_63\n      jump\t// in\n    tag_154:\n        /* \"#utility.yul\":7690:7729   */\n      tag_155\n        /* \"#utility.yul\":7720:7728   */\n      dup7\n        /* \"#utility.yul\":7709:7718   */\n      dup4\n        /* \"#utility.yul\":7690:7729   */\n      tag_63\n      jump\t// in\n    tag_155:\n        /* \"#utility.yul\":7678:7729   */\n      swap6\n      pop\n        /* \"#utility.yul\":7762:7766   */\n      dup1\n        /* \"#utility.yul\":7758:7767   */\n      not\n        /* \"#utility.yul\":7751:7756   */\n      dup5\n        /* \"#utility.yul\":7747:7768   */\n      and\n        /* \"#utility.yul\":7738:7768   */\n      swap4\n      pop\n        /* \"#utility.yul\":7811:7815   */\n      dup1\n        /* \"#utility.yul\":7801:7809   */\n      dup7\n        /* \"#utility.yul\":7797:7816   */\n      and\n        /* \"#utility.yul\":7790:7795   */\n      dup5\n        /* \"#utility.yul\":7787:7817   */\n      or\n        /* \"#utility.yul\":7777:7817   */\n      swap3\n      pop\n        /* \"#utility.yul\":7506:7823   */\n      pop\n      pop\n        /* \"#utility.yul\":7430:7823   */\n      swap4\n      swap3\n      pop\n      pop\n      pop\n      jump\t// out\n        /* \"#utility.yul\":7829:7889   */\n    tag_65:\n        /* \"#utility.yul\":7857:7860   */\n      0x00\n        /* \"#utility.yul\":7878:7883   */\n      dup2\n        /* \"#utility.yul\":7871:7883   */\n      swap1\n      pop\n        /* \"#utility.yul\":7829:7889   */\n      swap2\n      swap1\n      pop\n      jump\t// out\n        /* \"#utility.yul\":7895:8037   */\n    tag_66:\n        /* \"#utility.yul\":7945:7954   */\n      0x00\n        /* \"#utility.yul\":7978:8031   */\n      tag_158\n        /* \"#utility.yul\":7996:8030   */\n      tag_159\n        /* \"#utility.yul\":8005:8029   */\n      tag_160\n        /* \"#utility.yul\":8023:8028   */\n      dup5\n        /* \"#utility.yul\":8005:8029   */\n      tag_38\n      jump\t// in\n    tag_160:\n        /* \"#utility.yul\":7996:8030   */\n      tag_65\n      jump\t// in\n    tag_159:\n        /* \"#utility.yul\":7978:8031   */\n      tag_38\n      jump\t// in\n    tag_158:\n        /* \"#utility.yul\":7965:8031   */\n      swap1\n      pop\n        /* \"#utility.yul\":7895:8037   */\n      swap2\n      swap1\n      pop\n      jump\t// out\n        /* \"#utility.yul\":8043:8118   */\n    tag_67:\n        /* \"#utility.yul\":8086:8089   */\n      0x00\n        /* \"#utility.yul\":8107:8112   */\n      dup2\n        /* \"#utility.yul\":8100:8112   */\n      swap1\n      pop\n        /* \"#utility.yul\":8043:8118   */\n      swap2\n      swap1\n      pop\n      jump\t// out\n        /* \"#utility.yul\":8124:8393   */\n    tag_68:\n        /* \"#utility.yul\":8234:8273   */\n      tag_163\n        /* \"#utility.yul\":8265:8272   */\n      dup4\n        /* \"#utility.yul\":8234:8273   */\n      tag_66\n      jump\t// in\n    tag_163:\n        /* \"#utility.yul\":8295:8386   */\n      tag_164\n        /* \"#utility.yul\":8344:8385   */\n      tag_165\n        /* \"#utility.yul\":8368:8384   */\n      dup3\n        /* \"#utility.yul\":8344:8385   */\n      tag_67\n      jump\t// in\n    tag_165:\n        /* \"#utility.yul\":8336:8342   */\n      dup5\n        /* \"#utility.yul\":8329:8333   */\n      dup5\n        /* \"#utility.yul\":8323:8334   */\n      sload\n        /* \"#utility.yul\":8295:8386   */\n      tag_64\n      jump\t// in\n    tag_164:\n        /* \"#utility.yul\":8289:8293   */\n      dup3\n        /* \"#utility.yul\":8282:8387   */\n      sstore\n        /* \"#utility.yul\":8200:8393   */\n      pop\n        /* \"#utility.yul\":8124:8393   */\n      pop\n      pop\n      pop\n      jump\t// out\n        /* \"#utility.yul\":8399:8472   */\n    tag_69:\n        /* \"#utility.yul\":8444:8447   */\n      0x00\n        /* \"#utility.yul\":8399:8472   */\n      swap1\n      jump\t// out\n        /* \"#utility.yul\":8478:8667   */\n    tag_70:\n        /* \"#utility.yul\":8555:8587   */\n      tag_168\n      tag_69\n      jump\t// in\n    tag_168:\n        /* \"#utility.yul\":8596:8661   */\n      tag_169\n        /* \"#utility.yul\":8654:8660   */\n      dup2\n        /* \"#utility.yul\":8646:8652   */\n      dup5\n        /* \"#utility.yul\":8640:8644   */\n      dup5\n        /* \"#utility.yul\":8596:8661   */\n      tag_68\n      jump\t// in\n    tag_169:\n        /* \"#utility.yul\":8531:8667   */\n      pop\n        /* \"#utility.yul\":8478:8667   */\n      pop\n      pop\n      jump\t// out\n        /* \"#utility.yul\":8673:8859   */\n    tag_71:\n        /* \"#utility.yul\":8733:8853   */\n    tag_171:\n        /* \"#utility.yul\":8750:8753   */\n      dup2\n        /* \"#utility.yul\":8743:8748   */\n      dup2\n        /* \"#utility.yul\":8740:8754   */\n      lt\n        /* \"#utility.yul\":8733:8853   */\n      iszero\n      tag_173\n      jumpi\n        /* \"#utility.yul\":8804:8843   */\n      tag_174\n        /* \"#utility.yul\":8841:8842   */\n      0x00\n        /* \"#utility.yul\":8834:8839   */\n      dup3\n        /* \"#utility.yul\":8804:8843   */\n      tag_70\n      jump\t// in\n    tag_174:\n        /* \"#utility.yul\":8777:8778   */\n      0x01\n        /* \"#utility.yul\":8770:8775   */\n      dup2\n        /* \"#utility.yul\":8766:8779   */\n      add\n        /* \"#utility.yul\":8757:8779   */\n      swap1\n      pop\n        /* \"#utility.yul\":8733:8853   */\n      jump(tag_171)\n    tag_173:\n        /* \"#utility.yul\":8673:8859   */\n      pop\n      pop\n      jump\t// out\n        /* \"#utility.yul\":8865:9408   */\n    tag_72:\n        /* \"#utility.yul\":8966:8968   */\n      0x1f\n        /* \"#utility.yul\":8961:8964   */\n      dup3\n        /* \"#utility.yul\":8958:8969   */\n      gt\n        /* \"#utility.yul\":8955:9401   */\n      iszero\n      tag_176\n      jumpi\n        /* \"#utility.yul\":9000:9038   */\n      tag_177\n        /* \"#utility.yul\":9032:9037   */\n      dup2\n        /* \"#utility.yul\":9000:9038   */\n      tag_61\n      jump\t// in\n    tag_177:\n        /* \"#utility.yul\":9084:9113   */\n      tag_178\n        /* \"#utility.yul\":9102:9112   */\n      dup5\n        /* \"#utility.yul\":9084:9113   */\n      tag_62\n      jump\t// in\n    tag_178:\n        /* \"#utility.yul\":9074:9082   */\n      dup2\n        /* \"#utility.yul\":9070:9114   */\n      add\n        /* \"#utility.yul\":9267:9269   */\n      0x20\n        /* \"#utility.yul\":9255:9265   */\n      dup6\n        /* \"#utility.yul\":9252:9270   */\n      lt\n        /* \"#utility.yul\":9249:9298   */\n      iszero\n      tag_179\n      jumpi\n        /* \"#utility.yul\":9288:9296   */\n      dup2\n        /* \"#utility.yul\":9273:9296   */\n      swap1\n      pop\n        /* \"#utility.yul\":9249:9298   */\n    tag_179:\n        /* \"#utility.yul\":9311:9391   */\n      tag_180\n        /* \"#utility.yul\":9367:9389   */\n      tag_181\n        /* \"#utility.yul\":9385:9388   */\n      dup6\n        /* \"#utility.yul\":9367:9389   */\n      tag_62\n      jump\t// in\n    tag_181:\n        /* \"#utility.yul\":9357:9365   */\n      dup4\n        /* \"#utility.yul\":9353:9390   */\n      add\n        /* \"#utility.yul\":9340:9351   */\n      dup3\n        /* \"#utility.yul\":9311:9391   */\n      tag_71\n      jump\t// in\n    tag_180:\n        /* \"#utility.yul\":8970:9401   */\n      pop\n      pop\n        /* \"#utility.yul\":8955:9401   */\n    tag_176:\n        /* \"#utility.yul\":8865:9408   */\n      pop\n      pop\n      pop\n      jump\t// out\n        /* \"#utility.yul\":9414:9531   */\n    tag_73:\n        /* \"#utility.yul\":9468:9476   */\n      0x00\n        /* \"#utility.yul\":9518:9523   */\n      dup3\n        /* \"#utility.yul\":9512:9516   */\n      dup3\n        /* \"#utility.yul\":9508:9524   */\n      shr\n        /* \"#utility.yul\":9487:9524   */\n      swap1\n      pop\n        /* \"#utility.yul\":9414:9531   */\n      swap3\n      swap2\n      pop\n      pop\n      jump\t// out\n        /* \"#utility.yul\":9537:9706   */\n    tag_74:\n        /* \"#utility.yul\":9581:9587   */\n      0x00\n        /* \"#utility.yul\":9614:9665   */\n      tag_184\n        /* \"#utility.yul\":9662:9663   */\n      0x00\n        /* \"#utility.yul\":9658:9664   */\n      not\n        /* \"#utility.yul\":9650:9655   */\n      dup5\n        /* \"#utility.yul\":9647:9648   */\n      0x08\n        /* \"#utility.yul\":9643:9656   */\n      mul\n        /* \"#utility.yul\":9614:9665   */\n      tag_73\n      jump\t// in\n    tag_184:\n        /* \"#utility.yul\":9610:9666   */\n      not\n        /* \"#utility.yul\":9695:9699   */\n      dup1\n        /* \"#utility.yul\":9689:9693   */\n      dup4\n        /* \"#utility.yul\":9685:9700   */\n      and\n        /* \"#utility.yul\":9675:9700   */\n      swap2\n      pop\n        /* \"#utility.yul\":9588:9706   */\n      pop\n        /* \"#utility.yul\":9537:9706   */\n      swap3\n      swap2\n      pop\n      pop\n      jump\t// out\n        /* \"#utility.yul\":9711:10006   */\n    tag_75:\n        /* \"#utility.yul\":9787:9791   */\n      0x00\n        /* \"#utility.yul\":9933:9962   */\n      tag_186\n        /* \"#utility.yul\":9958:9961   */\n      dup4\n        /* \"#utility.yul\":9952:9956   */\n      dup4\n        /* \"#utility.yul\":9933:9962   */\n      tag_74\n      jump\t// in\n    tag_186:\n        /* \"#utility.yul\":9925:9962   */\n      swap2\n      pop\n        /* \"#utility.yul\":9995:9998   */\n      dup3\n        /* \"#utility.yul\":9992:9993   */\n      0x02\n        /* \"#utility.yul\":9988:9999   */\n      mul\n        /* \"#utility.yul\":9982:9986   */\n      dup3\n        /* \"#utility.yul\":9979:10000   */\n      or\n        /* \"#utility.yul\":9971:10000   */\n      swap1\n      pop\n        /* \"#utility.yul\":9711:10006   */\n      swap3\n      swap2\n      pop\n      pop\n      jump\t// out\n        /* \"#utility.yul\":10011:11406   */\n    tag_28:\n        /* \"#utility.yul\":10128:10165   */\n      tag_188\n        /* \"#utility.yul\":10161:10164   */\n      dup3\n        /* \"#utility.yul\":10128:10165   */\n      tag_57\n      jump\t// in\n    tag_188:\n        /* \"#utility.yul\":10230:10248   */\n      0xffffffffffffffff\n        /* \"#utility.yul\":10222:10228   */\n      dup2\n        /* \"#utility.yul\":10219:10249   */\n      gt\n        /* \"#utility.yul\":10216:10272   */\n      iszero\n      tag_189\n      jumpi\n        /* \"#utility.yul\":10252:10270   */\n      tag_190\n      tag_46\n      jump\t// in\n    tag_190:\n        /* \"#utility.yul\":10216:10272   */\n    tag_189:\n        /* \"#utility.yul\":10296:10334   */\n      tag_191\n        /* \"#utility.yul\":10328:10332   */\n      dup3\n        /* \"#utility.yul\":10322:10333   */\n      sload\n        /* \"#utility.yul\":10296:10334   */\n      tag_30\n      jump\t// in\n    tag_191:\n        /* \"#utility.yul\":10381:10448   */\n      tag_192\n        /* \"#utility.yul\":10441:10447   */\n      dup3\n        /* \"#utility.yul\":10433:10439   */\n      dup3\n        /* \"#utility.yul\":10427:10431   */\n      dup6\n        /* \"#utility.yul\":10381:10448   */\n      tag_72\n      jump\t// in\n    tag_192:\n        /* \"#utility.yul\":10475:10476   */\n      0x00\n        /* \"#utility.yul\":10499:10503   */\n      0x20\n        /* \"#utility.yul\":10486:10503   */\n      swap1\n      pop\n        /* \"#utility.yul\":10531:10533   */\n      0x1f\n        /* \"#utility.yul\":10523:10529   */\n      dup4\n        /* \"#utility.yul\":10520:10534   */\n      gt\n        /* \"#utility.yul\":10548:10549   */\n      0x01\n        /* \"#utility.yul\":10543:11161   */\n      dup2\n      eq\n      tag_194\n      jumpi\n        /* \"#utility.yul\":11205:11206   */\n      0x00\n        /* \"#utility.yul\":11222:11228   */\n      dup5\n        /* \"#utility.yul\":11219:11296   */\n      iszero\n      tag_195\n      jumpi\n        /* \"#utility.yul\":11271:11280   */\n      dup3\n        /* \"#utility.yul\":11266:11269   */\n      dup8\n        /* \"#utility.yul\":11262:11281   */\n      add\n        /* \"#utility.yul\":11256:11282   */\n      mload\n        /* \"#utility.yul\":11247:11282   */\n      swap1\n      pop\n        /* \"#utility.yul\":11219:11296   */\n    tag_195:\n        /* \"#utility.yul\":11322:11389   */\n      tag_196\n        /* \"#utility.yul\":11382:11388   */\n      dup6\n        /* \"#utility.yul\":11375:11380   */\n      dup3\n        /* \"#utility.yul\":11322:11389   */\n      tag_75\n      jump\t// in\n    tag_196:\n        /* \"#utility.yul\":11316:11320   */\n      dup7\n        /* \"#utility.yul\":11309:11390   */\n      sstore\n        /* \"#utility.yul\":11178:11400   */\n      pop\n        /* \"#utility.yul\":10513:11400   */\n      jump(tag_193)\n        /* \"#utility.yul\":10543:11161   */\n    tag_194:\n        /* \"#utility.yul\":10595:10599   */\n      0x1f\n        /* \"#utility.yul\":10591:10600   */\n      not\n        /* \"#utility.yul\":10583:10589   */\n      dup5\n        /* \"#utility.yul\":10579:10601   */\n      and\n        /* \"#utility.yul\":10629:10666   */\n      tag_197\n        /* \"#utility.yul\":10661:10665   */\n      dup7\n        /* \"#utility.yul\":10629:10666   */\n      tag_61\n      jump\t// in\n    tag_197:\n        /* \"#utility.yul\":10688:10689   */\n      0x00\n        /* \"#utility.yul\":10702:10910   */\n    tag_198:\n        /* \"#utility.yul\":10716:10723   */\n      dup3\n        /* \"#utility.yul\":10713:10714   */\n      dup2\n        /* \"#utility.yul\":10710:10724   */\n      lt\n        /* \"#utility.yul\":10702:10910   */\n      iszero\n      tag_200\n      jumpi\n        /* \"#utility.yul\":10795:10804   */\n      dup5\n        /* \"#utility.yul\":10790:10793   */\n      dup10\n        /* \"#utility.yul\":10786:10805   */\n      add\n        /* \"#utility.yul\":10780:10806   */\n      mload\n        /* \"#utility.yul\":10772:10778   */\n      dup3\n        /* \"#utility.yul\":10765:10807   */\n      sstore\n        /* \"#utility.yul\":10846:10847   */\n      0x01\n        /* \"#utility.yul\":10838:10844   */\n      dup3\n        /* \"#utility.yul\":10834:10848   */\n      add\n        /* \"#utility.yul\":10824:10848   */\n      swap2\n      pop\n        /* \"#utility.yul\":10893:10895   */\n      0x20\n        /* \"#utility.yul\":10882:10891   */\n      dup6\n        /* \"#utility.yul\":10878:10896   */\n      add\n        /* \"#utility.yul\":10865:10896   */\n      swap5\n      pop\n        /* \"#utility.yul\":10739:10743   */\n      0x20\n        /* \"#utility.yul\":10736:10737   */\n      dup2\n        /* \"#utility.yul\":10732:10744   */\n      add\n        /* \"#utility.yul\":10727:10744   */\n      swap1\n      pop\n        /* \"#utility.yul\":10702:10910   */\n      jump(tag_198)\n    tag_200:\n        /* \"#utility.yul\":10938:10944   */\n      dup7\n        /* \"#utility.yul\":10929:10936   */\n      dup4\n        /* \"#utility.yul\":10926:10945   */\n      lt\n        /* \"#utility.yul\":10923:11102   */\n      iszero\n      tag_201\n      jumpi\n        /* \"#utility.yul\":10996:11005   */\n      dup5\n        /* \"#utility.yul\":10991:10994   */\n      dup10\n        /* \"#utility.yul\":10987:11006   */\n      add\n        /* \"#utility.yul\":10981:11007   */\n      mload\n        /* \"#utility.yul\":11039:11087   */\n      tag_202\n        /* \"#utility.yul\":11081:11085   */\n      0x1f\n        /* \"#utility.yul\":11073:11079   */\n      dup10\n        /* \"#utility.yul\":11069:11086   */\n      and\n        /* \"#utility.yul\":11058:11067   */\n      dup3\n        /* \"#utility.yul\":11039:11087   */\n      tag_74\n      jump\t// in\n    tag_202:\n        /* \"#utility.yul\":11031:11037   */\n      dup4\n        /* \"#utility.yul\":11024:11088   */\n      sstore\n        /* \"#utility.yul\":10946:11102   */\n      pop\n        /* \"#utility.yul\":10923:11102   */\n    tag_201:\n        /* \"#utility.yul\":11148:11149   */\n      0x01\n        /* \"#utility.yul\":11144:11145   */\n      0x02\n        /* \"#utility.yul\":11136:11142   */\n      dup9\n        /* \"#utility.yul\":11132:11146   */\n      mul\n        /* \"#utility.yul\":11128:11150   */\n      add\n        /* \"#utility.yul\":11122:11126   */\n      dup9\n        /* \"#utility.yul\":11115:11151   */\n      sstore\n        /* \"#utility.yul\":10550:11161   */\n      pop\n      pop\n      pop\n        /* \"#utility.yul\":10513:11400   */\n    tag_193:\n      pop\n        /* \"#utility.yul\":10103:11406   */\n      pop\n      pop\n      pop\n        /* \"#utility.yul\":10011:11406   */\n      pop\n      pop\n      jump\t// out\n\n    auxdata: 0xa264697066735822122041a936f7a7572358edff67428563ff499cd1b7d6aba5a1f08a61d1e5ce9536e064736f6c634300081a0033\n}\n",
				"bytecode": {
					"linkReferences": {},
					"object": "6080604052348015600e575f80fd5b506107d78061001c5f395ff3fe608060405260043610610037575f3560e01c80630c55699c1461006f57806324ccab8f14610099578063e21f37ce146100ca57610038565b5b7fcf34ef537ac33ee1ac626ca1587a0a7e8e51561e5514f8cb36afa1c5102b3bab60405161006590610207565b60405180910390a1005b34801561007a575f80fd5b506100836100f4565b604051610090919061023d565b60405180910390f35b6100b360048036038101906100ae91906103cd565b6100fa565b6040516100c1929190610441565b60405180910390f35b3480156100d5575f80fd5b506100de610122565b6040516100eb91906104b8565b60405180910390f35b60015481565b5f80835f908161010a91906106d2565b508260018190555060016103e7915091509250929050565b5f805461012e90610505565b80601f016020809104026020016040519081016040528092919081815260200182805461015a90610505565b80156101a55780601f1061017c576101008083540402835291602001916101a5565b820191905f5260205f20905b81548152906001019060200180831161018857829003601f168201915b505050505081565b5f82825260208201905092915050565b7f66616c6c6261636b207761732063616c6c6564000000000000000000000000005f82015250565b5f6101f16013836101ad565b91506101fc826101bd565b602082019050919050565b5f6020820190508181035f83015261021e816101e5565b9050919050565b5f819050919050565b61023781610225565b82525050565b5f6020820190506102505f83018461022e565b92915050565b5f604051905090565b5f80fd5b5f80fd5b5f80fd5b5f80fd5b5f601f19601f8301169050919050565b7f4e487b71000000000000000000000000000000000000000000000000000000005f52604160045260245ffd5b6102b58261026f565b810181811067ffffffffffffffff821117156102d4576102d361027f565b5b80604052505050565b5f6102e6610256565b90506102f282826102ac565b919050565b5f67ffffffffffffffff8211156103115761031061027f565b5b61031a8261026f565b9050602081019050919050565b828183375f83830152505050565b5f610347610342846102f7565b6102dd565b9050828152602081018484840111156103635761036261026b565b5b61036e848285610327565b509392505050565b5f82601f83011261038a57610389610267565b5b813561039a848260208601610335565b91505092915050565b6103ac81610225565b81146103b6575f80fd5b50565b5f813590506103c7816103a3565b92915050565b5f80604083850312156103e3576103e261025f565b5b5f83013567ffffffffffffffff811115610400576103ff610263565b5b61040c85828601610376565b925050602061041d858286016103b9565b9150509250929050565b5f8115159050919050565b61043b81610427565b82525050565b5f6040820190506104545f830185610432565b610461602083018461022e565b9392505050565b5f81519050919050565b8281835e5f83830152505050565b5f61048a82610468565b61049481856101ad565b93506104a4818560208601610472565b6104ad8161026f565b840191505092915050565b5f6020820190508181035f8301526104d08184610480565b905092915050565b7f4e487b71000000000000000000000000000000000000000000000000000000005f52602260045260245ffd5b5f600282049050600182168061051c57607f821691505b60208210810361052f5761052e6104d8565b5b50919050565b5f819050815f5260205f209050919050565b5f6020601f8301049050919050565b5f82821b905092915050565b5f600883026105917fffffffffffffffffffffffffffffffffffffffffffffffffffffffffffffffff82610556565b61059b8683610556565b95508019841693508086168417925050509392505050565b5f819050919050565b5f6105d66105d16105cc84610225565b6105b3565b610225565b9050919050565b5f819050919050565b6105ef836105bc565b6106036105fb826105dd565b848454610562565b825550505050565b5f90565b61061761060b565b6106228184846105e6565b505050565b5b818110156106455761063a5f8261060f565b600181019050610628565b5050565b601f82111561068a5761065b81610535565b61066484610547565b81016020851015610673578190505b61068761067f85610547565b830182610627565b50505b505050565b5f82821c905092915050565b5f6106aa5f198460080261068f565b1980831691505092915050565b5f6106c2838361069b565b9150826002028217905092915050565b6106db82610468565b67ffffffffffffffff8111156106f4576106f361027f565b5b6106fe8254610505565b610709828285610649565b5f60209050601f83116001811461073a575f8415610728578287015190505b61073285826106b7565b865550610799565b601f19841661074886610535565b5f5b8281101561076f5784890151825560018201915060208501945060208101905061074a565b8683101561078c5784890151610788601f89168261069b565b8355505b6001600288020188555050505b50505050505056fea264697066735822122041a936f7a7572358edff67428563ff499cd1b7d6aba5a1f08a61d1e5ce9536e064736f6c634300081a0033",
					"opcodes": "PUSH1 0x80 PUSH1 0x40 MSTORE CALLVALUE DUP1 ISZERO PUSH1 0xE JUMPI PUSH0 DUP1 REVERT JUMPDEST POP PUSH2 0x7D7 DUP1 PUSH2 0x1C PUSH0 CODECOPY PUSH0 RETURN INVALID PUSH1 0x80 PUSH1 0x40 MSTORE PUSH1 0x4 CALLDATASIZE LT PUSH2 0x37 JUMPI PUSH0 CALLDATALOAD PUSH1 0xE0 SHR DUP1 PUSH4 0xC55699C EQ PUSH2 0x6F JUMPI DUP1 PUSH4 0x24CCAB8F EQ PUSH2 0x99 JUMPI DUP1 PUSH4 0xE21F37CE EQ PUSH2 0xCA JUMPI PUSH2 0x38 JUMP JUMPDEST JUMPDEST PUSH32 0xCF34EF537AC33EE1AC626CA1587A0A7E8E51561E5514F8CB36AFA1C5102B3BAB PUSH1 0x40 MLOAD PUSH2 0x65 SWAP1 PUSH2 0x207 JUMP JUMPDEST PUSH1 0x40 MLOAD DUP1 SWAP2 SUB SWAP1 LOG1 STOP JUMPDEST CALLVALUE DUP1 ISZERO PUSH2 0x7A JUMPI PUSH0 DUP1 REVERT JUMPDEST POP PUSH2 0x83 PUSH2 0xF4 JUMP JUMPDEST PUSH1 0x40 MLOAD PUSH2 0x90 SWAP2 SWAP1 PUSH2 0x23D JUMP JUMPDEST PUSH1 0x40 MLOAD DUP1 SWAP2 SUB SWAP1 RETURN JUMPDEST PUSH2 0xB3 PUSH1 0x4 DUP1 CALLDATASIZE SUB DUP2 ADD SWAP1 PUSH2 0xAE SWAP2 SWAP1 PUSH2 0x3CD JUMP JUMPDEST PUSH2 0xFA JUMP JUMPDEST PUSH1 0x40 MLOAD PUSH2 0xC1 SWAP3 SWAP2 SWAP1 PUSH2 0x441 JUMP JUMPDEST PUSH1 0x40 MLOAD DUP1 SWAP2 SUB SWAP1 RETURN JUMPDEST CALLVALUE DUP1 ISZERO PUSH2 0xD5 JUMPI PUSH0 DUP1 REVERT JUMPDEST POP PUSH2 0xDE PUSH2 0x122 JUMP JUMPDEST PUSH1 0x40 MLOAD PUSH2 0xEB SWAP2 SWAP1 PUSH2 0x4B8 JUMP JUMPDEST PUSH1 0x40 MLOAD DUP1 SWAP2 SUB SWAP1 RETURN JUMPDEST PUSH1 0x1 SLOAD DUP2 JUMP JUMPDEST PUSH0 DUP1 DUP4 PUSH0 SWAP1 DUP2 PUSH2 0x10A SWAP2 SWAP1 PUSH2 0x6D2 JUMP JUMPDEST POP DUP3 PUSH1 0x1 DUP2 SWAP1 SSTORE POP PUSH1 0x1 PUSH2 0x3E7 SWAP2 POP SWAP2 POP SWAP3 POP SWAP3 SWAP1 POP JUMP JUMPDEST PUSH0 DUP1 SLOAD PUSH2 0x12E SWAP1 PUSH2 0x505 JUMP JUMPDEST DUP1 PUSH1 0x1F ADD PUSH1 0x20 DUP1 SWAP2 DIV MUL PUSH1 0x20 ADD PUSH1 0x40 MLOAD SWAP1 DUP2 ADD PUSH1 0x40 MSTORE DUP1 SWAP3 SWAP2 SWAP1 DUP2 DUP2 MSTORE PUSH1 0x20 ADD DUP3 DUP1 SLOAD PUSH2 0x15A SWAP1 PUSH2 0x505 JUMP JUMPDEST DUP1 ISZERO PUSH2 0x1A5 JUMPI DUP1 PUSH1 0x1F LT PUSH2 0x17C JUMPI PUSH2 0x100 DUP1 DUP4 SLOAD DIV MUL DUP4 MSTORE SWAP2 PUSH1 0x20 ADD SWAP2 PUSH2 0x1A5 JUMP JUMPDEST DUP3 ADD SWAP2 SWAP1 PUSH0 MSTORE PUSH1 0x20 PUSH0 KECCAK256 SWAP1 JUMPDEST DUP2 SLOAD DUP2 MSTORE SWAP1 PUSH1 0x1 ADD SWAP1 PUSH1 0x20 ADD DUP1 DUP4 GT PUSH2 0x188 JUMPI DUP3 SWAP1 SUB PUSH1 0x1F AND DUP3 ADD SWAP2 JUMPDEST POP POP POP POP POP DUP2 JUMP JUMPDEST PUSH0 DUP3 DUP3 MSTORE PUSH1 0x20 DUP3 ADD SWAP1 POP SWAP3 SWAP2 POP POP JUMP JUMPDEST PUSH32 0x66616C6C6261636B207761732063616C6C656400000000000000000000000000 PUSH0 DUP3 ADD MSTORE POP JUMP JUMPDEST PUSH0 PUSH2 0x1F1 PUSH1 0x13 DUP4 PUSH2 0x1AD JUMP JUMPDEST SWAP2 POP PUSH2 0x1FC DUP3 PUSH2 0x1BD JUMP JUMPDEST PUSH1 0x20 DUP3 ADD SWAP1 POP SWAP2 SWAP1 POP JUMP JUMPDEST PUSH0 PUSH1 0x20 DUP3 ADD SWAP1 POP DUP2 DUP2 SUB PUSH0 DUP4 ADD MSTORE PUSH2 0x21E DUP2 PUSH2 0x1E5 JUMP JUMPDEST SWAP1 POP SWAP2 SWAP1 POP JUMP JUMPDEST PUSH0 DUP2 SWAP1 POP SWAP2 SWAP1 POP JUMP JUMPDEST PUSH2 0x237 DUP2 PUSH2 0x225 JUMP JUMPDEST DUP3 MSTORE POP POP JUMP JUMPDEST PUSH0 PUSH1 0x20 DUP3 ADD SWAP1 POP PUSH2 0x250 PUSH0 DUP4 ADD DUP5 PUSH2 0x22E JUMP JUMPDEST SWAP3 SWAP2 POP POP JUMP JUMPDEST PUSH0 PUSH1 0x40 MLOAD SWAP1 POP SWAP1 JUMP JUMPDEST PUSH0 DUP1 REVERT JUMPDEST PUSH0 DUP1 REVERT JUMPDEST PUSH0 DUP1 REVERT JUMPDEST PUSH0 DUP1 REVERT JUMPDEST PUSH0 PUSH1 0x1F NOT PUSH1 0x1F DUP4 ADD AND SWAP1 POP SWAP2 SWAP1 POP JUMP JUMPDEST PUSH32 0x4E487B7100000000000000000000000000000000000000000000000000000000 PUSH0 MSTORE PUSH1 0x41 PUSH1 0x4 MSTORE PUSH1 0x24 PUSH0 REVERT JUMPDEST PUSH2 0x2B5 DUP3 PUSH2 0x26F JUMP JUMPDEST DUP2 ADD DUP2 DUP2 LT PUSH8 0xFFFFFFFFFFFFFFFF DUP3 GT OR ISZERO PUSH2 0x2D4 JUMPI PUSH2 0x2D3 PUSH2 0x27F JUMP JUMPDEST JUMPDEST DUP1 PUSH1 0x40 MSTORE POP POP POP JUMP JUMPDEST PUSH0 PUSH2 0x2E6 PUSH2 0x256 JUMP JUMPDEST SWAP1 POP PUSH2 0x2F2 DUP3 DUP3 PUSH2 0x2AC JUMP JUMPDEST SWAP2 SWAP1 POP JUMP JUMPDEST PUSH0 PUSH8 0xFFFFFFFFFFFFFFFF DUP3 GT ISZERO PUSH2 0x311 JUMPI PUSH2 0x310 PUSH2 0x27F JUMP JUMPDEST JUMPDEST PUSH2 0x31A DUP3 PUSH2 0x26F JUMP JUMPDEST SWAP1 POP PUSH1 0x20 DUP2 ADD SWAP1 POP SWAP2 SWAP1 POP JUMP JUMPDEST DUP3 DUP2 DUP4 CALLDATACOPY PUSH0 DUP4 DUP4 ADD MSTORE POP POP POP JUMP JUMPDEST PUSH0 PUSH2 0x347 PUSH2 0x342 DUP5 PUSH2 0x2F7 JUMP JUMPDEST PUSH2 0x2DD JUMP JUMPDEST SWAP1 POP DUP3 DUP2 MSTORE PUSH1 0x20 DUP2 ADD DUP5 DUP5 DUP5 ADD GT ISZERO PUSH2 0x363 JUMPI PUSH2 0x362 PUSH2 0x26B JUMP JUMPDEST JUMPDEST PUSH2 0x36E DUP5 DUP3 DUP6 PUSH2 0x327 JUMP JUMPDEST POP SWAP4 SWAP3 POP POP POP JUMP JUMPDEST PUSH0 DUP3 PUSH1 0x1F DUP4 ADD SLT PUSH2 0x38A JUMPI PUSH2 0x389 PUSH2 0x267 JUMP JUMPDEST JUMPDEST DUP2 CALLDATALOAD PUSH2 0x39A DUP5 DUP3 PUSH1 0x20 DUP7 ADD PUSH2 0x335 JUMP JUMPDEST SWAP2 POP POP SWAP3 SWAP2 POP POP JUMP JUMPDEST PUSH2 0x3AC DUP2 PUSH2 0x225 JUMP JUMPDEST DUP2 EQ PUSH2 0x3B6 JUMPI PUSH0 DUP1 REVERT JUMPDEST POP JUMP JUMPDEST PUSH0 DUP2 CALLDATALOAD SWAP1 POP PUSH2 0x3C7 DUP2 PUSH2 0x3A3 JUMP JUMPDEST SWAP3 SWAP2 POP POP JUMP JUMPDEST PUSH0 DUP1 PUSH1 0x40 DUP4 DUP6 SUB SLT ISZERO PUSH2 0x3E3 JUMPI PUSH2 0x3E2 PUSH2 0x25F JUMP JUMPDEST JUMPDEST PUSH0 DUP4 ADD CALLDATALOAD PUSH8 0xFFFFFFFFFFFFFFFF DUP2 GT ISZERO PUSH2 0x400 JUMPI PUSH2 0x3FF PUSH2 0x263 JUMP JUMPDEST JUMPDEST PUSH2 0x40C DUP6 DUP3 DUP7 ADD PUSH2 0x376 JUMP JUMPDEST SWAP3 POP POP PUSH1 0x20 PUSH2 0x41D DUP6 DUP3 DUP7 ADD PUSH2 0x3B9 JUMP JUMPDEST SWAP2 POP POP SWAP3 POP SWAP3 SWAP1 POP JUMP JUMPDEST PUSH0 DUP2 ISZERO ISZERO SWAP1 POP SWAP2 SWAP1 POP JUMP JUMPDEST PUSH2 0x43B DUP2 PUSH2 0x427 JUMP JUMPDEST DUP3 MSTORE POP POP JUMP JUMPDEST PUSH0 PUSH1 0x40 DUP3 ADD SWAP1 POP PUSH2 0x454 PUSH0 DUP4 ADD DUP6 PUSH2 0x432 JUMP JUMPDEST PUSH2 0x461 PUSH1 0x20 DUP4 ADD DUP5 PUSH2 0x22E JUMP JUMPDEST SWAP4 SWAP3 POP POP POP JUMP JUMPDEST PUSH0 DUP2 MLOAD SWAP1 POP SWAP2 SWAP1 POP JUMP JUMPDEST DUP3 DUP2 DUP4 MCOPY PUSH0 DUP4 DUP4 ADD MSTORE POP POP POP JUMP JUMPDEST PUSH0 PUSH2 0x48A DUP3 PUSH2 0x468 JUMP JUMPDEST PUSH2 0x494 DUP2 DUP6 PUSH2 0x1AD JUMP JUMPDEST SWAP4 POP PUSH2 0x4A4 DUP2 DUP6 PUSH1 0x20 DUP7 ADD PUSH2 0x472 JUMP JUMPDEST PUSH2 0x4AD DUP2 PUSH2 0x26F JUMP JUMPDEST DUP5 ADD SWAP2 POP POP SWAP3 SWAP2 POP POP JUMP JUMPDEST PUSH0 PUSH1 0x20 DUP3 ADD SWAP1 POP DUP2 DUP2 SUB PUSH0 DUP4 ADD MSTORE PUSH2 0x4D0 DUP2 DUP5 PUSH2 0x480 JUMP JUMPDEST SWAP1 POP SWAP3 SWAP2 POP POP JUMP JUMPDEST PUSH32 0x4E487B7100000000000000000000000000000000000000000000000000000000 PUSH0 MSTORE PUSH1 0x22 PUSH1 0x4 MSTORE PUSH1 0x24 PUSH0 REVERT JUMPDEST PUSH0 PUSH1 0x2 DUP3 DIV SWAP1 POP PUSH1 0x1 DUP3 AND DUP1 PUSH2 0x51C JUMPI PUSH1 0x7F DUP3 AND SWAP2 POP JUMPDEST PUSH1 0x20 DUP3 LT DUP2 SUB PUSH2 0x52F JUMPI PUSH2 0x52E PUSH2 0x4D8 JUMP JUMPDEST JUMPDEST POP SWAP2 SWAP1 POP JUMP JUMPDEST PUSH0 DUP2 SWAP1 POP DUP2 PUSH0 MSTORE PUSH1 0x20 PUSH0 KECCAK256 SWAP1 POP SWAP2 SWAP1 POP JUMP JUMPDEST PUSH0 PUSH1 0x20 PUSH1 0x1F DUP4 ADD DIV SWAP1 POP SWAP2 SWAP1 POP JUMP JUMPDEST PUSH0 DUP3 DUP3 SHL SWAP1 POP SWAP3 SWAP2 POP POP JUMP JUMPDEST PUSH0 PUSH1 0x8 DUP4 MUL PUSH2 0x591 PUSH32 0xFFFFFFFFFFFFFFFFFFFFFFFFFFFFFFFFFFFFFFFFFFFFFFFFFFFFFFFFFFFFFFFF DUP3 PUSH2 0x556 JUMP JUMPDEST PUSH2 0x59B DUP7 DUP4 PUSH2 0x556 JUMP JUMPDEST SWAP6 POP DUP1 NOT DUP5 AND SWAP4 POP DUP1 DUP7 AND DUP5 OR SWAP3 POP POP POP SWAP4 SWAP3 POP POP POP JUMP JUMPDEST PUSH0 DUP2 SWAP1 POP SWAP2 SWAP1 POP JUMP JUMPDEST PUSH0 PUSH2 0x5D6 PUSH2 0x5D1 PUSH2 0x5CC DUP5 PUSH2 0x225 JUMP JUMPDEST PUSH2 0x5B3 JUMP JUMPDEST PUSH2 0x225 JUMP JUMPDEST SWAP1 POP SWAP2 SWAP1 POP JUMP JUMPDEST PUSH0 DUP2 SWAP1 POP SWAP2 SWAP1 POP JUMP JUMPDEST PUSH2 0x5EF DUP4 PUSH2 0x5BC JUMP JUMPDEST PUSH2 0x603 PUSH2 0x5FB DUP3 PUSH2 0x5DD JUMP JUMPDEST DUP5 DUP5 SLOAD PUSH2 0x562 JUMP JUMPDEST DUP3 SSTORE POP POP POP POP JUMP JUMPDEST PUSH0 SWAP1 JUMP JUMPDEST PUSH2 0x617 PUSH2 0x60B JUMP JUMPDEST PUSH2 0x622 DUP2 DUP5 DUP5 PUSH2 0x5E6 JUMP JUMPDEST POP POP POP JUMP JUMPDEST JUMPDEST DUP2 DUP2 LT ISZERO PUSH2 0x645 JUMPI PUSH2 0x63A PUSH0 DUP3 PUSH2 0x60F JUMP JUMPDEST PUSH1 0x1 DUP2 ADD SWAP1 POP PUSH2 0x628 JUMP JUMPDEST POP POP JUMP JUMPDEST PUSH1 0x1F DUP3 GT ISZERO PUSH2 0x68A JUMPI PUSH2 0x65B DUP2 PUSH2 0x535 JUMP JUMPDEST PUSH2 0x664 DUP5 PUSH2 0x547 JUMP JUMPDEST DUP2 ADD PUSH1 0x20 DUP6 LT ISZERO PUSH2 0x673 JUMPI DUP2 SWAP1 POP JUMPDEST PUSH2 0x687 PUSH2 0x67F DUP6 PUSH2 0x547 JUMP JUMPDEST DUP4 ADD DUP3 PUSH2 0x627 JUMP JUMPDEST POP POP JUMPDEST POP POP POP JUMP JUMPDEST PUSH0 DUP3 DUP3 SHR SWAP1 POP SWAP3 SWAP2 POP POP JUMP JUMPDEST PUSH0 PUSH2 0x6AA PUSH0 NOT DUP5 PUSH1 0x8 MUL PUSH2 0x68F JUMP JUMPDEST NOT DUP1 DUP4 AND SWAP2 POP POP SWAP3 SWAP2 POP POP JUMP JUMPDEST PUSH0 PUSH2 0x6C2 DUP4 DUP4 PUSH2 0x69B JUMP JUMPDEST SWAP2 POP DUP3 PUSH1 0x2 MUL DUP3 OR SWAP1 POP SWAP3 SWAP2 POP POP JUMP JUMPDEST PUSH2 0x6DB DUP3 PUSH2 0x468 JUMP JUMPDEST PUSH8 0xFFFFFFFFFFFFFFFF DUP2 GT ISZERO PUSH2 0x6F4 JUMPI PUSH2 0x6F3 PUSH2 0x27F JUMP JUMPDEST JUMPDEST PUSH2 0x6FE DUP3 SLOAD PUSH2 0x505 JUMP JUMPDEST PUSH2 0x709 DUP3 DUP3 DUP6 PUSH2 0x649 JUMP JUMPDEST PUSH0 PUSH1 0x20 SWAP1 POP PUSH1 0x1F DUP4 GT PUSH1 0x1 DUP2 EQ PUSH2 0x73A JUMPI PUSH0 DUP5 ISZERO PUSH2 0x728 JUMPI DUP3 DUP8 ADD MLOAD SWAP1 POP JUMPDEST PUSH2 0x732 DUP6 DUP3 PUSH2 0x6B7 JUMP JUMPDEST DUP7 SSTORE POP PUSH2 0x799 JUMP JUMPDEST PUSH1 0x1F NOT DUP5 AND PUSH2 0x748 DUP7 PUSH2 0x535 JUMP JUMPDEST PUSH0 JUMPDEST DUP3 DUP2 LT ISZERO PUSH2 0x76F JUMPI DUP5 DUP10 ADD MLOAD DUP3 SSTORE PUSH1 0x1 DUP3 ADD SWAP2 POP PUSH1 0x20 DUP6 ADD SWAP5 POP PUSH1 0x20 DUP2 ADD SWAP1 POP PUSH2 0x74A JUMP JUMPDEST DUP7 DUP4 LT ISZERO PUSH2 0x78C JUMPI DUP5 DUP10 ADD MLOAD PUSH2 0x788 PUSH1 0x1F DUP10 AND DUP3 PUSH2 0x69B JUMP JUMPDEST DUP4 SSTORE POP JUMPDEST PUSH1 0x1 PUSH1 0x2 DUP9 MUL ADD DUP9 SSTORE POP POP POP JUMPDEST POP POP POP POP POP POP JUMP INVALID LOG2 PUSH5 0x6970667358 0x22 SLT KECCAK256 COINBASE 0xA9 CALLDATASIZE 0xF7 0xA7 JUMPI 0x23 PC 0xED SELFDESTRUCT PUSH8 0x428563FF499CD1B7 0xD6 0xAB 0xA5 LOG1 CREATE DUP11 PUSH2 0xD1E5 0xCE SWAP6 CALLDATASIZE 0xE0 PUSH5 0x736F6C6343 STOP ADDMOD BYTE STOP CALLER "
				},
				"gasEstimates": {
					"creation": {
						"codeDepositCost": "401400",
						"executionCost": "434",
						"totalCost": "401834"
					},
					"external": {
						"": "1925",
						"foo(string,uint256)": "infinite",
						"message()": "infinite",
						"x()": "2403"
					}
				},
				"methodIdentifiers": {
					"foo(string,uint256)": "24ccab8f",
					"message()": "e21f37ce",
					"x()": "0c55699c"
				}
			},
			"storageLayout": {
				"storage": [
					{
						"astId": 3,
						"contract": "Call.sol:TestCall",
						"label": "message",
						"offset": 0,
						"slot": "0",
						"type": "t_string_storage"
					},
					{
						"astId": 5,
						"contract": "Call.sol:TestCall",
						"label": "x",
						"offset": 0,
						"slot": "1",
						"type": "t_uint256"
					}
				],
				"types": {
					"t_string_storage": {
						"encoding": "bytes",
						"label": "string",
						"numberOfBytes": "32"
					},
					"t_uint256": {
						"encoding": "inplace",
						"label": "uint256",
						"numberOfBytes": "32"
					}
				}
			},
			"userdoc": {
				"kind": "user",
				"methods": {},
				"version": 1
			}
		}
	}
}